:020000040800F2
:1000000000000320CD080008C5080008A10700086B
:10001000B5070008C9070008C5080008000000006F
:10002000000000000000000000000000C5080008FB
:10003000C508000800000000D50600087507000884
:10004000C5080008C5080008C5080008C50800085C
:1000500000000000C5080008C5080008C508000821
:10006000C5080008C5080008C5080008C50800083C
:10007000C5080008C5080008C5080008C50800082C
:10008000C5080008C5080008C5080008C50800081C
:10009000C5080008C5080008C5080008C50800080C
:1000A000C5080008C5080008C5080008C5080008FC
:1000B000C5080008C5080008C5080008C5080008EC
:1000C000C5080008C5080008C5080008C5080008DC
:1000D000C5080008C5080008C5080008C5080008CC
:1000E000C5080008C5080008C5080008C5080008BC
:1000F000C5080008C5080008C5080008C5080008AC
:10010000C5080008C5080008C5080008C50800089B
:10011000C5080008C5080008C5080008C50800088B
:10012000C5080008C5080008C5080008C50800087B
:10013000C5080008C5080008C5080008C50800086B
:10014000C5080008C5080008C5080008C50800085B
:10015000C5080008C5080008C5080008C50800084B
:10016000C5080008C5080008C5080008C50800083B
:10017000C5080008C5080008C5080008C50800082B
:10018000C5080008C5080008C5080008C50800081B
:10019000C5080008C5080008C5080008C50800080B
:1001A000C5080008C5080008C50800080348044B36
:1001B000834202D0034B03B11847704778000020F8
:1001C00078000020000000000548064B1B1AD90FDC
:1001D00001EBA301491002D0034B03B1184770474C
:1001E00078000020780000200000000010B5064CC8
:1001F000237843B9FFF7DAFF044B13B10448AFF398
:1002000000800123237010BD780000200000000052
:100210000C1A000808B5044B1BB104490448AFF39D
:100220000080BDE80840CFE7000000007C0000200F
:100230000C1A0008A3F5803A704700BF154B002B3D
:1002400008BF114B9D46FFF7F5FF00218B460F4677
:100250001148124A121A00F04BFF0C4B002B00D031
:1002600098470B4B002B00D098470020002104003A
:100270000D000B4800F09CFC00F0ECFF2000290072
:1002800000F010F800F09AFC0000080000000000E8
:10029000000000000000000078000020D0020020D4
:1002A0009D12000880B500AF00F03EF9094800F04B
:1002B000A9F8094800F032FE00F0A9F800F0A2FA0F
:1002C0004FF47A7000F06AF800F0B4F900F00AF820
:1002D00000BFFDE700EC02202819000880B400AF41
:1002E00000BFFDE780B500AF094800F017FE002011
:1002F00000F0B8FA4FF47A7000F0BCF9002000F07A
:10030000C9FA4FF47A7000F0B5F900BFECE700BF0E
:100310005019000880B500AF094800F0FFFD0E201D
:1003200000F0A0FA4FF47A7000F0A4F90E2000F06B
:10033000B1FA4FF47A7000F09DF900BFECE700BF0E
:100340006419000880B500AF084800F0E7FD0720F9
:1003500000F088FAFA2000F08DF9072000F09AFAF0
:10036000FA2000F087F900BFEEE700BF7819000817
:1003700080B500AF084800F0D1FD0E2000F072FA01
:100380007D2000F077F90E2000F084FA7D2000F047
:1003900071F900BFEEE700BF8C19000880B487B088
:1003A00000AF7860144B7B61144B3B61144A7B684F
:1003B000B2FBF3F3013BFB607B6900221A607B69AF
:1003C0001A68FB681A437B691A603B691B6843F033
:1003D00002023B691A603B691B6843F004023B69F7
:1003E0001A603B691B6843F001023B691A6000BF59
:1003F0001C37BD4680BC704714E000E010E000E010
:100400000024F400034683F30888704700BF80B4DB
:1004100085B000AF394B00221A72384B00221A7691
:10042000364B002283F82820344B002283F83820F2
:10043000324B002283F84820304B314A1A602F4B50
:10044000304A1A612D4B304A1A622C4B2F4A1A63DC
:100450002A4B2F4A1A64294B2E4ADA60274B2E4A20
:10046000DA61264B2D4ADA62244B2D4ADA63234B9C
:100470002C4ADA640023BB6037E0204ABB681B01CA
:1004800013441B68FB60FB68043BFB60FB684FF098
:1004900080721A60FB68043BFB60184ABB681B0152
:1004A00013440C331B681A46FB681A60FB68043B54
:1004B000FB60FB686FF002021A6000237B6008E0BB
:1004C000FB68043BFB60FB6800221A607B68013319
:1004D0007B607B680C2BF3DDFA680849BB681B0165
:1004E0000B441A60BB680133BB60BB68042BC4DDDE
:1004F00000BF00BF1437BD4680BC70479800002085
:1005000000F002200000032000FC022000F802207E
:1005100000F40220DD020008E502000815030008CF
:10052000450300087103000880B483B000AF0C4B92
:100530007B607B681B6843F480327B681A607B6851
:100540001B6843F400327B681A607B681B6843F4C5
:1005500080227B681A6000BF0C37BD4680BC7047A4
:1005600024ED00E080B400AF044B1B78044A1B016B
:1005700013441B681846BD4680BC70470400002029
:100580009800002080B483B000AF7860054B1B78E2
:10059000054A1B0113447A681A6000BF0C37BD4638
:1005A00080BC7047040000209800002080B483B015
:1005B00000AFFF237B6000233B6024E01A4B1B78D5
:1005C0000133DAB2184B1A70174B1A78174BA3FB8A
:1005D000021399080B469B000B44D31ADAB2124B54
:1005E0001A70114B1B78124A1B01134408331B78F5
:1005F0007B607B68002B03D10B4B1B78002B06D153
:100600003B6801333B603B68042BD7DD00E000BF53
:100610007B68002B02D0044B00221A7000BF0C37FD
:10062000BD4680BC704700BF04000020CDCCCCCCC0
:100630009800002000B5FFF795FF80F309885DF86A
:1006400004EB4FF0020080F31488704700BF80B4C1
:1006500083B000AF064B7B607B681B6843F0805221
:100660007B681A6000BF0C37BD4680BC704700BF76
:1006700004ED00E080B582B000AF78604FF001007B
:1006800080F31088104B1B78002B15D00F4B1A6885
:100690000D4B1B7818467B681A440D4903010B4427
:1006A00004331A60084B1B78094A1B0113440833B2
:1006B000FF221A70FFF7CBFF4FF0000080F3108885
:1006C00000BF0837BD4680BD040000209400002014
:1006D00098000020EFF3098020E9F00F00B5FFF744
:1006E00051FFFFF763FFFFF73DFFB0E8F00F80F326
:1006F00009885DF804EB704700BF80B400AF044B7D
:100700001B680133024A136000BFBD4680BC7047BE
:100710009400002080B483B000AF01237B601BE015
:10072000124A7B681B01134408331B78002B10D03E
:100730000E4A7B681B01134404331A680C4B1B6878
:100740009A4206D1094A7B681B01134408330022F0
:100750001A707B6801337B607B68042BE0DD00BF8F
:1007600000BF0C37BD4680BC704700BF980000201A
:100770009400002080B582B000AF084B7B60FFF78B
:10078000BCFFFFF7C7FF7B681B6843F080527B68A4
:100790001A6000BF0837BD4680BD00BF04ED00E011
:1007A00080B500AF024800F0B9FB00BFFDE700BF15
:1007B000A019000880B500AF024800F0AFFB00BFF1
:1007C000FDE700BFB819000880B500AF024800F08F
:1007D000A5FB00BFFDE700BFD019000880B485B0BD
:1007E00000AF78600023FB6002E0FB680133FB6030
:1007F000FA687B689A42F8D300BF00BF1437BD4641
:1008000080BC704780B582B000AF144B7B60144B46
:100810003B607B681B6843F002027B681A603B68A0
:100820001B6843F001023B681A603B681B6843F099
:1008300080523B681A603B681B6843F480423B6807
:100840001A60002000F026F80E2000F023F80720A0
:1008500000F020F800BF0837BD4680BD30380240A8
:100860000004024080B485B000AF0346FB71084B22
:10087000FB60FB681B68FA79012101FA02F21A4356
:10088000FB681A6000BF1437BD4680BC704700BFCC
:100890001404024080B485B000AF0346FB71084BDE
:1008A000FB60FB681B68FA79012101FA02F2D2436E
:1008B0001A40FB681A6000BF1437BD4680BC704701
:1008C0001404024080B400AF00BFFDE780B586B0DD
:1008D00000AF1B4A1B4BD31A7B601A4B7B611A4B30
:1008E0003B610023FB600AE03A69531C3B617B6972
:1008F000591C796112781A70FB680133FB60FA6841
:100900007B689A42F0D3114A114BD31A7B60104B8B
:100910007B610023BB6007E07B695A1C7A6100227F
:100920001A70BB680133BB60BA687B689A42F3D324
:1009300000F090FCFFF7B6FC00BF1837BD4680BD45
:100940007000002000000020181A0008D0020020CB
:100950007800002080B400AF00BFBD4680BC704767
:1009600080B400AF01231846BD4680BC704780B5F7
:1009700082B000AF7860396000F066FC0346162252
:100980001A604FF0FF3318460837BD4680BD80B56A
:1009900082B000AF78604FF0FF317868FFF7E7FF73
:1009A00000BFFDE780B586B000AFF860B9607A603F
:1009B00000237B610AE0AFF300800146BB685A1C4C
:1009C000BA60CAB21A707B6901337B617A697B684D
:1009D0009A42F0DB7B6818461837BD4680BD80B56B
:1009E00086B000AFF860B9607A6000237B6109E0EF
:1009F000BB685A1CBA601B781846AFF300807B694D
:100A000001337B617A697B689A42F1DB7B68184627
:100A10001837BD4680BD80B483B000AF78604FF01A
:100A2000FF3318460C37BD4680BC704780B483B096
:100A300000AF786039603B684FF400525A60002381
:100A400018460C37BD4680BC704780B483B000AFF9
:100A50007860012318460C37BD4680BC704780B4CF
:100A600085B000AFF860B9607A600023184614378B
:100A7000BD4680BC70470EB480B482B000AF7860D1
:100A80004FF0FF3318460837BD4680BC03B07047AF
:100A900080B582B000AF786000F0D6FB03460A2232
:100AA0001A604FF0FF3318460837BD4680BD80B549
:100AB00082B000AF786000F0C7FB034602221A60E4
:100AC0004FF0FF3318460837BD4680BD80B483B071
:100AD00000AF78604FF0FF3318460C37BD4680BC3E
:100AE000704780B483B000AF786039603B684FF4E2
:100AF00000525A60002318460C37BD4680BC704730
:100B000080B582B000AF7860396000F09DFB03468D
:100B10001F221A604FF0FF3318460837BD4680BDCC
:100B200080B500AF00F090FB03460B221A604FF037
:100B3000FF33184680BD80B584B000AFF860B9605F
:100B40007A6000F081FB03460C221A604FF0FF33FD
:100B500018461037BD4680BD80B584B000AF7860C0
:100B6000114B1B68002B02D10F4B104A1A600E4B21
:100B70001B68FB600C4B1A687B6813446A469342FF
:100B800007D900F061FB03460C221A604FF0FF33D7
:100B900006E0054B1A687B681344034A1360FB6840
:100BA00018461037BD4680BDEC000020D002002062
:100BB000002301461A46184600F090BB08B5064BC4
:100BC000044613B1002100F0E5FB044B1B6803B1A0
:100BD00098472046FFF7DBFE951300082802002007
:100BE000002310B50446C0E90033C0E90433836034
:100BF00081814366C2818361194608225C3000F01E
:100C000077FA0D4B63620D4BA3620D4BE3620D4B04
:100C100023630D4B24629C4206D003F16802944288
:100C200002D0D0339C4205D104F15800BDE81040F9
:100C300000F049BB10BD00BF2D0F0008530F000886
:100C40008B0F0008AF0F0008F0000020024A034994
:100C5000034800F0EFB800BF0C0000204117000867
:100C60001C00002041680C4B994210B5044601D08D
:100C700000F066FDA168094B994202D0204600F0C1
:100C80005FFDE168064B994204D02046BDE8104064
:100C900000F056BD10BD00BFF0000020580100203C
:100CA000C001002008B54B6EDA0705D48B899B057F
:100CB00002D4886D00F00BFB002008BD08B54B6E18
:100CC000DA0705D48B899B0502D4886D00F005FBFB
:100CD000002008BD10B50B4B0B4C0C4A1A60204687
:100CE00000220421FFF77CFF04F1680001220921A2
:100CF000FFF776FF04F1D0000222BDE81040122178
:100D0000FFF76EBF28020020F00000204D0C000805
:100D1000014800F0DCBA00BF37020020014800F0B3
:100D2000DCBA00BF37020020F8B50746FFF7F0FF36
:100D3000234B1B680BB9FFF7CDFF224ED6E90134D8
:100D4000013B0FD53568002D37D14FF4D6713846A9
:100D500000F0EAFB044628BB3060FFF7DFFF0C23FE
:100D60003B601BE0B4F90C50D5B9174BE36004F1BC
:100D70005800656600F0A7FAFFF7D0FFC4E90155F7
:100D8000C4E904552560A5610822294604F15C00E8
:100D900000F0AEF9C4E90D55C4E912552046F8BD7E
:100DA0006834CDE70423056043600C30A0604FF445
:100DB000D072294600F09CF934603668BEE700BF67
:100DC000280200200C0000200100FFFF10B504469F
:100DD000FFF79EFF236A1BB1BDE81040FFF79EBFDF
:100DE000044B2362044B1B68002BF5D1FFF772FF05
:100DF000F2E700BF650C00082802002008B5FFF7E5
:100E000087FFBDE80840024A0249002000F012B8FE
:100E10000C000020A50C000808B5044A0449002075
:100E200000F008F8BDE80840FFF778BF0C0000208C
:100E3000BD0C00082DE9F8430746884614460026F5
:100E4000D4E90195B9F1010905D52468002CF7D141
:100E50003046BDE8F883AB89012B07D9B5F90E30D0
:100E6000013303D029463846C04706436835E9E7D1
:100E7000036A70B5846805460E460BB9FFF7A6FFF6
:100E8000636EDB0705D4A389980502D4A06D00F03A
:100E90001EFAA389190702D52369002B35D12146F3
:100EA000284600F0CFF880B34FF0FF35636EDA07C5
:100EB00005D4A3899B0502D4A06D00F00EFA284644
:100EC00070BD002B04DAA2699A4217DC0A2915D0FA
:100ED00023685A1C22601970A36816F8011F013B91
:100EE000A3600029EDD1002B11DA22460A21284601
:100EF00000F061F80130D7D00A25D7E7224628460E
:100F000000F059F80130E7D1CEE7013EE4E723686D
:100F10005A1C22600A221A70EEE70000024B0146BA
:100F20001868FFF7A5BF00BF1800002010B50C46D9
:100F3000B1F90E1000F064F90028ABBF636DA3890E
:100F40001B1823F48053ACBF6365A38110BD002040
:100F500070472DE9F0411F468B89DB0505460C469D
:100F6000164605D5B1F90E100223002200F036F91D
:100F7000A389B4F90E1023F48053A38132463B4673
:100F80002846BDE8F04100F04DB910B50C46B1F966
:100F90000E1000F023F9431CA38915BF606523F4EC
:100FA000805343F48053A38118BFA38110BDB1F9CE
:100FB0000E1000F0A5B8F8B50E461446054618B157
:100FC000036A0BB9FFF702FFA369A360A3891A079D
:100FD00001D5236943B92146284600F033F818B1FA
:100FE0004FF0FF373846F8BD23682269981A6369C5
:100FF000F6B28342374605DC2146284600F0A0FBC6
:101000000028EDD1A368013BA36023685A1C22602D
:101010001E706269431C9A4204D0A389DB07E1D5A4
:101020000A2EDFD12146284600F08AFB0028D9D0BD
:10103000D6E70000024B0A4601461868FFF7BBBF1F
:101040001800002038B5294B054618680C4618B121
:10105000036A0BB9FFF7BAFEB4F90C30190722D4B2
:10106000DA0607D409222A6043F04003A3814FF037
:10107000FF3033E0580712D5616B41B104F14403EE
:10108000994202D0284600F0E3F900236363A38964
:1010900023F02403A3810023636023692360A389D1
:1010A00043F00803A38123694BB9A38903F4207398
:1010B000B3F5007F03D02146284600F0A3FBB4F926
:1010C0000C3013F001020AD00022A2606269524281
:1010D000A261226942B913F08000C5D138BD9907D9
:1010E00058BF6269A260F4E70020F7E7180000200B
:1010F00002440346934200D1704703F8011BF9E70D
:1011000038B5064D0023044608462B60FFF783FCE4
:10111000431C02D12B6803B1236038BD2C02002090
:101120002D4B1B68834270B5044653D0C3691BB373
:10113000DB6863B10025E369DB685959B1B904354F
:10114000802DF8D1E3692046D96800F081F9E36980
:10115000196811B1204600F07BF9E3699D685DB123
:10116000294620462D6800F073F9F8E70E682046FE
:1011700000F06EF93146E1E7616911B1204600F0F7
:1011800067F9E16911B1204600F062F9216B11B1F4
:10119000204600F05DF9616B11B1204600F058F96E
:1011A000A16B11B1204600F053F9A16C11B120469A
:1011B00000F04EF9616C11B1204600F049F9E16A86
:1011C00011B1204600F044F9236A1BB12046BDE866
:1011D0007040184770BD00BF1800002038B5074D9B
:1011E00004460846114600222A601A46FFF737FCDB
:1011F000431C02D12B6803B1236038BD2C020020B0
:1012000038B5074D04460846114600222A601A46A2
:10121000FFF7C8FB431C02D12B6803B1236038BD24
:101220002C02002038B5074D04460846114600221E
:101230002A601A46FFF7D3FB431C02D12B6803B187
:10124000236038BD2C020020014B1868704700BF96
:101250001800002070B50D4D0D4C641BA410002625
:10126000A64209D10B4D0C4C00F03AFB641BA410B4
:101270000026A64205D170BD55F8043B98470136BB
:10128000EEE755F8043B98470136F2E7000000000E
:1012900000000000000000000000000038B5074D0D
:1012A000074C641BA4101CB9BDE8384000F01EBBFD
:1012B000013C55F824309847F5E700BF00000000D6
:1012C00000000000704770477047704770477047D4
:1012D0000120704701207047704770472DE9F8439F
:1012E000274D0746286891460E469846FFF7EFFFC0
:1012F000244A14683CB9244B1360244A12B1126882
:10130000C3F88820204C63681F2B06DD2868FFF790
:10131000E4FF4FF0FF30BDE8F8832FB3D4F8880026
:1013200068B91B4B002BF1D04FF48470AFF30080F1
:101330000028EBD00023C0E94033C4F8880063687C
:1013400040F8239001229A4000EB8301D0F800314D
:101350001343C0F80031022FC1F8808002BFD0F8DB
:1013600004311343C0F80431636828685A1C0233FF
:10137000626044F82360FFF7B0FF0020CBE700BFB6
:101380006C000020C4020020380200200000000091
:10139000000000002DE9F74FDFF8AC800190D8F88D
:1013A0000000DFF8A8900F46FFF791FFD9F8005032
:1013B00035B9D8F8000003B0BDE8F04FFFF78DBF96
:1013C0006C68D5F888B0661E013405EB84040BF117
:1013D000800A002EEDDB4FB1BBF1000F02D1013EC0
:1013E000043CF6E75AF82620BA42F8D16968226828
:1013F0000139B14216BF00236E602360002AEED08F
:101400006B680093BBF1000F07D0DBF800110123DC
:1014100003FA06FC1CEA010F09D190476968009B9A
:10142000D9F800209942C1D19542D8D0BEE7DBF867
:1014300004015BF826101CEA000F02D101989047C6
:10144000ECE708469047E9E76C000020C402002062
:1014500038B50546002941D051F8043C0C1F002B3B
:10146000B8BFE41800F0E0F81D4A136833B96360B0
:1014700014602846BDE8384000F0DCB8A34208D923
:10148000206821188B4201BF19685B680918216028
:10149000EDE71A465B680BB1A342FAD91168501800
:1014A000A0420BD120680144501883421160E0D162
:1014B00018685B68536008441060DAE702D90C23AF
:1014C0002B60D6E7206821188B4204BF19685B683F
:1014D000636004BF091821605460CAE738BD00BFCB
:1014E000CC02002070B50F4E0C463168054611B98C
:1014F00000F0E6F930602146284600F0E1F9431C8F
:1015000003D14FF0FF34204670BDC41C24F0030407
:10151000A042F8D0211A284600F0D2F90130F2D1C9
:10152000EFE700BFC80200202DE9F843CD1C25F0ED
:10153000030508350C2D38BF0C25002D064601DBB0
:10154000A94204D90C2333600020BDE8F883DFF8FA
:10155000D48000F069F8D8F800301C4644BB294616
:101560003046FFF7BFFF431C044658D1D8F800406F
:101570002746002F43D1002C4BD0236839463046F4
:1015800004EB030900F09CF9814542D121686D1AF2
:1015900029463046FFF7A6FF01303AD023682B4496
:1015A0002360D8F800305A6862BBC8F800700FE0BA
:1015B0002268521B20D40B2A17D96119A342256037
:1015C00018BF5960636808BFC8F8001062514B60CB
:1015D000304600F02FF804F10B00231D20F0070027
:1015E000C21A1CBF1B1AA350AFE76268A3420CBF0C
:1015F000C8F800205A60EBE723466468AEE73C4633
:101600007F68B6E71A465B68A342FBD100235360AC
:10161000DEE70C233360304600F00CF894E70560F9
:10162000D6E700BFCC0200200148FFF750BE00BF44
:10163000340200200148FFF750BE00BF34020020F2
:10164000B1F90C20F8B5160705460C4654D44B6882
:10165000002B02DC0B6C002B48DDE66A002E45D027
:10166000002312F480522F68216A2B6030D0626D03
:10167000A389590705D56368D21A636B0BB1236C34
:10168000D21A0023E66A216A2846B047431CA38980
:1016900006D129681D292BD8284ACA40D60727D544
:1016A00000226260D9042269226004D5421C01D163
:1016B0002B6803B96065616B2F60B9B104F1440315
:1016C000994202D02846FFF7C3FE002363630DE072
:1016D00001232846B0470246501CC9D12B68002B75
:1016E000C6D01D2B01D0162B1DD12F60002021E06C
:1016F00043F040031BB21AE00F69002FF6D09307A6
:101700000E6808BF4B690F6018BF0023F61B8B6083
:10171000002EEBDD216AD4F828C033463A4628462D
:10172000E047002807DCB4F90C3043F04003A38104
:101730004FF0FF30F8BD0744361AE9E701004020BA
:1017400038B50B6905460C4613B90025284638BD47
:1017500018B1036A0BB9FFF739FBB4F90C30002B51
:10176000F3D0626ED00704D4990502D4A06DFFF7C0
:10177000AEFD28462146FFF763FF636EDA07054694
:10178000E4D4A3899B05E1D4A06DFFF7A6FDDDE7B6
:10179000014620B9044A05490548FFF74BBB054BF4
:1017A0001868FFF7CDBF00BF0C00002041170008EC
:1017B0001C0000201800002070B50C46B1F90E1076
:1017C000002996B015461E460DDAA38913F0800F46
:1017D0004FF0000114BF40234FF4806300203160BC
:1017E0002B6016B070BD6A4600F048F80028ECDBAC
:1017F000019901F47041A1F50053594259414FF448
:101800008063EBE78B89F7B59D0706460C4607D545
:1018100004F14703236023610123636103B0F0BD3A
:1018200001AB6A46FFF7C8FF009F054639463046C0
:10183000FFF77AFE48B9B4F90C309A05EED423F0DC
:10184000030343F00203A381E2E7A389206043F08E
:101850008003A381019BC4E904075BB1B4F90E10B6
:10186000304600F01DF828B1A38923F0030343F0AC
:101870000103A381A3891D43A581CFE738B5074D97
:1018800000230446084611462B60FFF7CFF8431C9F
:1018900002D12B6803B1236038BD00BF2C020020A9
:1018A00038B5064D0023044608462B60FFF7CDF8F7
:1018B000431C02D12B6803B1236038BD2C020020E9
:1018C00038B5064D0023044608462B60FFF744F95F
:1018D000431C02D12B6803B1236038BD2C020020C9
:1018E000F8B500BFF8BC08BC9E467047F8B500BF0D
:1018F000F8BC08BC9E4670473E410C41114127414F
:1019000036410341064115410F410E412641134125
:101910002941024119410A410B41000064000000C5
:101920006400000064000000496D706C656D656EB8
:10193000746174696F6E206F662073696D706C6579
:10194000207461736B207363686564756C657200E5
:101950005461736B312069732065786563757469B0
:101960006E6700005461736B32206973206578657F
:10197000637574696E6700005461736B332069731B
:1019800020657865637574696E6700005461736BD8
:101990003420697320657865637574696E6700002B
:1019A000457863657074696F6E203A20486172648F
:1019B0006661756C74000000457863657074696FCA
:1019C0006E203A204D656D4D616E616765000000C7
:1019D000457863657074696F6E203A20427573466E
:1019E00061756C74000000003E410C4111412741BB
:1019F00036410341064115410F410E412641134135
:0C1A00002941024119410A410B4100003C
:041A0C0000000000D6
:081A100024E8FF7F0100000043
:101A18000000000001000000E800002000000000B5
:101A280003000000F00000201C000020000000005F
:101A3800F000002058010020C00100200000000034
:101A4800000000000000000000000000000000008E
:101A5800000000000000000000000000000000007E
:101A6800000000000000000000000000000000006E
:101A78000000000000000000951300083602002056
:041A8800150200083B
:041A8C00ED01000860
:04000005080008CD1A
:00000001FF
