:020000040800F2
:100000000000032091170008D9170008D91700082D
:10001000D9170008D9170008D917000800000000F8
:10002000000000000000000000000000D9170008D8
:10003000D917000800000000D9170008D9170008D8
:10004000D9170008D9170008D9170008D9170008D0
:10005000D9170008D9170008D9170008D9170008C0
:10006000D9170008D9170008D9170008D9170008B0
:10007000D9170008D9170008D9170008D9170008A0
:10008000D9170008D9170008D9170008D917000890
:10009000D9170008D9170008D9170008D917000880
:1000A000D9170008D9170008D9170008D917000870
:1000B000D9170008D9170008D9170008D917000860
:1000C000D9170008D9170008D9170008D917000850
:1000D000D9170008D9170008D9170008D917000840
:1000E000D9170008D9170008D9170008D917000830
:1000F000D9170008D9170008D9170008D917000820
:10010000D9170008D9170008D9170008D91700080F
:10011000D9170008D9170008D9170008D9170008FF
:10012000D9170008D9170008D9170008D9170008EF
:10013000D9170008D9170008D9170008D9170008DF
:10014000D9170008D9170008D9170008D9170008CF
:10015000D9170008D9170008D9170008D9170008BF
:10016000D9170008D9170008D9170008D9170008AF
:10017000D9170008D9170008D9170008D91700089F
:10018000D9170008D9170008D9170008D91700088F
:10019000D9170008D9170008D9170008D91700087F
:0C01A000D9170008D9170008D91700086B
:1001AC000348044B834202D0034B03B118477047FA
:1001BC007000002070000020000000000548064B75
:1001CC001B1AD90F01EBA301491002D0034B03B149
:1001DC0018477047700000207000002000000000DD
:1001EC0010B5064C237843B9FFF7DAFF044B13B173
:1001FC000448AFF300800123237010BD7000002071
:10020C00000000001422000808B5044B1BB104497F
:10021C000448AFF30080BDE80840CFE700000000C1
:10022C007400002014220008A3F5803A704700BF28
:10023C00154B002B08BF114B9D46FFF7F5FF002116
:10024C008B460F461148124A121A01F069FC0C4BEE
:10025C00002B00D098470B4B002B00D09847002068
:10026C00002104000D000B4801F0B1FA01F00AFD69
:10027C002000290000F010F801F0B0FA000008008E
:10028C0000000000000000000000000070000020D2
:10029C0074020020D91C000880B584B000AF012185
:1002AC00022000F09FFD44F281033B6001233B716F
:1002BC0000237B710023BB710023FB713B46194665
:1002CC00144801F09BF844F28101124801F0AFF997
:1002DC000023FB6004E000BF00BFFB680133FB6040
:1002EC000D4B1B681A0AFB689A42F4D844F2810140
:1002FC00084801F0ABF90023BB6004E000BF00BF6D
:10030C00BB680133BB60044B1B681A0ABB689A427A
:10031C00F4D8D8E7000402400800002080B400AFF5
:10032C0000BFBD465DF8047B704780B400AF01236D
:10033C001846BD465DF8047B704780B582B000AFAF
:10034C007860396001F098FC034616221A604FF071
:10035C00FF3318460837BD4680BD80B582B000AF6C
:10036C0078604FF0FF317868FFF7E7FF00BFFDE7DB
:10037C0080B586B000AFF860B9607A6000237B610D
:10038C000AE0AFF300800146BB685A1CBA60CAB2DF
:10039C001A707B6901337B617A697B689A42F0DB66
:1003AC007B6818461837BD4680BD80B586B000AF57
:1003BC00F860B9607A6000237B6109E0BB685A1C65
:1003CC00BA601B781846AFF300807B6901337B6100
:1003DC007A697B689A42F1DB7B6818461837BD4610
:1003EC0080BD80B483B000AF78604FF0FF33184607
:1003FC000C37BD465DF8047B704780B483B000AF0A
:10040C00786039603B684FF400525A6000231846FC
:10041C000C37BD465DF8047B704780B483B000AFE9
:10042C007860012318460C37BD465DF8047B704795
:10043C0080B485B000AFF860B9607A6000231846CC
:10044C001437BD465DF8047B70470EB480B482B09F
:10045C0000AF78604FF0FF3318460837BD465DF8A3
:10046C00047B03B0704780B582B000AF786001F0B8
:10047C0003FC03460A221A604FF0FF331846083774
:10048C00BD4680BD80B582B000AF786001F0F4FB52
:10049C00034602221A604FF0FF3318460837BD4658
:1004AC0080BD80B483B000AF78604FF0FF33184646
:1004BC000C37BD465DF8047B704780B483B000AF49
:1004CC00786039603B684FF400525A60002318463C
:1004DC000C37BD465DF8047B704780B582B000AF29
:1004EC007860396001F0C8FB03461F221A604FF098
:1004FC00FF3318460837BD4680BD80B500AF01F00C
:10050C00BBFB03460B221A604FF0FF33184680BD2D
:10051C0080B584B000AFF860B9607A6001F0ACFBD4
:10052C0003460C221A604FF0FF3318461037BD46B5
:10053C0080BD80B584B000AF7860124B1B68002B77
:10054C0002D1104B104A1A600E4B1B68FB600D4B0E
:10055C001A687B6813446A46934207D901F08CFBF6
:10056C0003460C221A604FF0FF3306E0054B1A6865
:10057C007B681344034A1360FB6818461037BD466A
:10058C0080BD00BF900000207802002080B500AF35
:10059C00164BD3F88830154A43F47003C2F88830F0
:1005AC00134B1B68124A43F001031360104B0022DB
:1005BC009A600F4B1B680E4A23F0847323F480332C
:1005CC0013600B4B0B4A5A60094B1B68084A23F407
:1005DC0080231360064B0022DA6000F08FF8034B87
:1005EC004FF000629A6000BF80BD00BF00ED00E0DC
:1005FC00003802401030002480B487B000AF0023D4
:10060C003B6100237B610223FB600023BB60022360
:10061C007B60354B9B6803F00C033B613B69082BFB
:10062C0011D03B69082B44D83B69002B03D03B69A4
:10063C00042B04D03DE02D4B2D4A1A603DE02B4B92
:10064C002C4A1A6039E0284B5B689B0D03F00103C0
:10065C00BB60254B5B6803F03F037B60BB68002BE2
:10066C000CD0244A7B68B2FBF3F31F4A5268920900
:10067C00C2F3080202FB03F37B610BE01C4A7B68AC
:10068C00B2FBF3F3184A52689209C2F3080202FB58
:10069C0003F37B61144B5B681B0C03F00303013306
:1006AC005B00FB607A69FB68B2FBF3F30F4A1360E3
:1006BC0003E00E4B0E4A1A6000BF0B4B9B681B09E4
:1006CC0003F00F030C4AD35CDBB23B61074B1A6897
:1006DC003B6922FA03F3054A136000BF1C37BD4681
:1006EC005DF8047B704700BF003802400800002012
:1006FC000024F40000127A005422000880B483B065
:10070C0000AF00237B6000233B60364B1B68354AEF
:10071C0043F480331360334B1B6803F400333B60AA
:10072C007B6801337B603B68002B03D17B68B3F59E
:10073C00A06FF0D12B4B1B6803F40033002B02D0BD
:10074C0001233B6001E000233B603B68012B42D15D
:10075C00244B1B6C234A43F080531364224B1B68BD
:10076C00214A43F4804313601E4B1E4A9B689360DE
:10077C001C4B9B681B4A43F400439360194B9B68CA
:10078C00184A43F4A0539360164B184A5A60154B01
:10079C001B68144A43F08073136000BF114B1B6835
:1007AC0003F00073002BF9D0114B40F205621A6074
:1007BC000C4B9B680B4A23F003039360094B9B681B
:1007CC00084A43F00203936000BF064B9B6803F09A
:1007DC000C03082BF9D100BF0C37BD465DF8047B28
:1007EC00704700BF003802400070004019544007A9
:1007FC00003C024080B400AF104B1B680F4A43F022
:10080C00010313600D4B00229A600C4B1B680B4AC2
:10081C0023F0847323F480331360084B084A5A6026
:10082C00064B1B68054A23F480231360034B0022FC
:10083C00DA6000BFBD465DF8047B704700380240AB
:10084C001030002480B483B000AF0346FB71064B1C
:10085C0000221A70044AFB79137000BF0C37BD4696
:10086C005DF8047B704700BF0238024080B582B04F
:10087C0000AF00233B600023FB710023BB713120D0
:10088C0000F0B6FC0346BB713B6801333B603B6830
:10089C00B3F5A06F02D0BB79002BF0D0312000F063
:1008AC00A7FC0346002B02D00123FB7101E00023BF
:1008BC00FB71FB7918460837BD4680BD80B485B006
:1008CC0000AF0346FB710023FB600A4B1B68FB6007
:1008DC00FB6823F0F803FB60FB79DB00FA68134339
:1008EC00FB60044AFB68136000BF1437BD465DF81B
:1008FC00047B70470038024080B483B000AF0346DD
:10090C00FB71044AFB79136000BF0C37BD465DF8E0
:10091C00047B70470000474280B483B000AF0346AD
:10092C00FB710D4B00221A700B4B00221A70FB79D5
:10093C00012B02D0042B04D007E0074B01221A70C4
:10094C0003E0054B05221A7000BF00BF0C37BD46F3
:10095C005DF8047B704700BF7038024080B483B0F0
:10096C0000AF0346FB71044AFB79136000BF0C37E0
:10097C00BD465DF8047B7047800E474280B485B05D
:10098C0000AFF860B9607A603B607B689A01BB6825
:10099C001A433B685B08013B1B041A43FB681A4370
:1009AC00BB691B06044913434B6000BF1437BD469B
:1009BC005DF8047B704700BF0038024080B483B000
:1009CC0000AF0346FB71044AFB79136000BF0C3780
:1009DC00BD465DF8047B70476000474280B483B02D
:1009EC0000AF786039607B689A013B681B0705494A
:1009FC001343C1F8843000BF0C37BD465DF8047B4F
:100A0C00704700BF0038024080B483B000AF03468B
:100A1C00FB71044AFB79136000BF0C37BD465DF8CF
:100A2C00047B70476800474280B483B000AF034634
:100A3C00FB71044AFB79136000BF0C37BD465DF8AF
:100A4C00047B70474C00474280B485B000AF78609F
:100A5C0039600023FB600B4B9B68FB60FB6823F049
:100A6C00EC63FB607A683B681343FA681343FB60E2
:100A7C00044AFB68936000BF1437BD465DF8047BE5
:100A8C00704700BF0038024080B485B000AF78607A
:100A9C0039600023FB600B4B9B68FB60FB6823F009
:100AAC007843FB607A683B681343FA681343FB6036
:100ABC00044AFB68936000BF1437BD465DF8047BA5
:100ACC00704700BF0038024080B485B000AF78603A
:100ADC000023FB60094B9B68FB60FB6823F003035E
:100AEC00FB60FA687B681343FB60044AFB68936005
:100AFC0000BF1437BD465DF8047B704700380240D8
:100B0C0080B400AF054B9B68DBB203F00C03DBB287
:100B1C001846BD465DF8047B704700BF00380240A4
:100B2C0080B485B000AF78600023FB60094B9B68F4
:100B3C00FB60FB6823F0F003FB60FA687B681343EF
:100B4C00FB60044AFB68936000BF1437BD465DF838
:100B5C00047B70470038024080B485B000AF7860E9
:100B6C000023FB60094B9B68FB60FB6823F4E0539C
:100B7C00FB60FA687B681343FB60044AFB68936074
:100B8C0000BF1437BD465DF8047B70470038024047
:100B9C0080B485B000AF78600023FB600A4B9B6883
:100BAC00FB60FB6823F46043FB607B68DB00FA6846
:100BBC001343FB60044AFB68936000BF1437BD46C7
:100BCC005DF8047B704700BF0038024080B489B0E8
:100BDC0000AF78600023BB6100237B610023FB61C5
:100BEC0002233B610023FB600223BB604A4B9B68E2
:100BFC0003F00C03BB61BB69082B11D0BB69082B3C
:100C0C0044D8BB69002B03D0BB69042B04D03DE056
:100C1C007B68424A1A603DE07B68414A1A6039E0C1
:100C2C003D4B5B689B0D03F00103FB603A4B5B682B
:100C3C0003F03F03BB60FB68002B0CD0384ABB6849
:100C4C00B2FBF3F3344A52689209C2F3080202FB76
:100C5C0003F3FB610BE0314ABB68B2FBF3F32E4AA2
:100C6C0052689209C2F3080202FB03F3FB612A4BA0
:100C7C005B681B0C03F0030301335B003B61FA69F7
:100C8C003B69B2FBF3F27B681A6003E07B68234A92
:100C9C001A6000BF204B9B6803F0F003BB61BB697B
:100CAC001B09BB611F4ABB6913441B78DBB27B6118
:100CBC007B681A687B69DA407B685A60164B9B68C4
:100CCC0003F4E053BB61BB699B0ABB61154ABB696A
:100CDC0013441B78DBB27B617B685A687B69DA4012
:100CEC007B689A600C4B9B6803F46043BB61BB69E7
:100CFC005B0BBB610B4ABB6913441B78DBB27B619A
:100D0C007B685A687B69DA407B68DA6000BF2437FD
:100D1C00BD465DF8047B7047003802400024F400A7
:100D2C0000127A006422000880B485B000AF7860AD
:100D3C000023FB607B6803F44073B3F5407F11D153
:100D4C000F4B9B68FB60FB6823F4F813FB607B681C
:100D5C0023F0704323F44073FA681343FB60084A92
:100D6C00FB689360064B1A6F7B68C3F30B03044953
:100D7C0013430B6700BF1437BD465DF8047B704707
:100D8C000038024080B483B000AF0346FB71044AC4
:100D9C00FB79136000BF0C37BD465DF8047B7047D0
:100DAC003C0E474280B483B000AF0346FB71044A4B
:100DBC00FB79136000BF0C37BD465DF8047B7047B0
:100DCC00400E474280B483B000AF7860044A7B6821
:100DDC00136000BF0C37BD465DF8047B704700BF45
:100DEC005C01474280B483B000AF78600B46FB7067
:100DFC00FB78002B06D00A4B1A6B09497B6813430E
:100E0C000B6306E0064B1A6B7B68DB43044913400B
:100E1C000B6300BF0C37BD465DF8047B704700BF09
:100E2C000038024080B483B000AF78600B46FB7092
:100E3C00FB78002B06D00A4B5A6B09497B6813438D
:100E4C004B6306E0064B5A6B7B68DB43044913404B
:100E5C004B6300BF0C37BD465DF8047B704700BF89
:100E6C000038024080B483B000AF78600B46FB7052
:100E7C00FB78002B06D00A4B9A6B09497B6813430D
:100E8C008B6306E0064B9A6B7B68DB43044913408B
:100E9C008B6300BF0C37BD465DF8047B704700BF09
:100EAC000038024080B483B000AF78600B46FB7012
:100EBC00FB78002B06D00A4B1A6C09497B6813434C
:100ECC000B6406E0064B1A6C7B68DB430449134049
:100EDC000B6400BF0C37BD465DF8047B704700BF48
:100EEC000038024080B483B000AF78600B46FB70D2
:100EFC00FB78002B06D00A4B5A6C09497B681343CC
:100F0C004B6406E0064B5A6C7B68DB430449134088
:100F1C004B6400BF0C37BD465DF8047B704700BFC7
:100F2C000038024080B483B000AF78600B46FB7091
:100F3C00FB78002B06D00A4B1A6909497B681343CE
:100F4C000B6106E0064B1A697B68DB4304491340CE
:100F5C000B6100BF0C37BD465DF8047B704700BFCA
:100F6C000038024080B483B000AF78600B46FB7051
:100F7C00FB78002B06D00A4B5A6909497B6813434E
:100F8C004B6106E0064B5A697B68DB43044913400E
:100F9C004B6100BF0C37BD465DF8047B704700BF4A
:100FAC000038024080B483B000AF78600B46FB7011
:100FBC00FB78002B06D00A4B9A6909497B681343CE
:100FCC008B6106E0064B9A697B68DB43044913404E
:100FDC008B6100BF0C37BD465DF8047B704700BFCA
:100FEC000038024080B483B000AF78600B46FB70D1
:100FFC00FB78002B06D00A4B1A6A09497B6813430D
:10100C000B6206E0064B1A6A7B68DB43044913400B
:10101C000B6200BF0C37BD465DF8047B704700BF08
:10102C000038024080B483B000AF78600B46FB7090
:10103C00FB78002B06D00A4B5A6A09497B6813438C
:10104C004B6206E0064B5A6A7B68DB43044913404B
:10105C004B6200BF0C37BD465DF8047B704700BF88
:10106C000038024080B483B000AF78600B46FB7050
:10107C00FB78002B06D00A4B1A6D09497B68134389
:10108C000B6506E0064B1A6D7B68DB430449134085
:10109C000B6500BF0C37BD465DF8047B704700BF85
:1010AC000038024080B483B000AF78600B46FB7010
:1010BC00FB78002B06D00A4B5A6D09497B68134309
:1010CC004B6506E0064B5A6D7B68DB4304491340C5
:1010DC004B6500BF0C37BD465DF8047B704700BF05
:1010EC000038024080B483B000AF78600B46FB70D0
:1010FC00FB78002B06D00A4B9A6D09497B68134389
:10110C008B6506E0064B9A6D7B68DB430449134004
:10111C008B6500BF0C37BD465DF8047B704700BF84
:10112C000038024080B483B000AF78600B46FB708F
:10113C00FB78002B06D00A4B1A6E09497B681343C7
:10114C000B6606E0064B1A6E7B68DB4304491340C2
:10115C000B6600BF0C37BD465DF8047B704700BFC3
:10116C000038024080B483B000AF78600B46FB704F
:10117C00FB78002B06D00A4B5A6E09497B68134347
:10118C004B6606E0064B5A6E7B68DB430449134002
:10119C004B6600BF0C37BD465DF8047B704700BF43
:1011AC000038024080B483B000AF03460A46FB719E
:1011BC001346BB71BB79002B08D00C4B1B78DAB2F1
:1011CC000A49FB791343DBB20B7009E0074B1B7820
:1011DC00DAB2FB79DB43DBB204491340DBB20B70B0
:1011EC0000BF0C37BD465DF8047B70470D380240DC
:1011FC0080B487B000AF0346FB710023FB60002373
:10120C007B610023FB74FB795B09DBB2FB60FB6841
:10121C00012B03D1124B1B687B6109E0FB68022B8D
:10122C0003D10F4B1B6F7B6102E00D4B5B6F7B613E
:10123C00FB7903F01F03FB607A69FB6822FA03F366
:10124C0003F00103002B02D00123FB7401E0002307
:10125C00FB74FB7C18461C37BD465DF8047B70475D
:10126C000038024080B400AF054B5B6F044A43F07A
:10127C008073536700BFBD465DF8047B704700BFA9
:10128C000038024080B485B000AF0346FB710023E8
:10129C00FB73094BDA68FB791340002B02D0012356
:1012AC00FB7301E00023FB73FB7B18461437BD4630
:1012BC005DF8047B704700BF0038024080B483B0F7
:1012CC0000AF0346FB71044AFB79137000BF0C3767
:1012DC00BD465DF8047B70470E38024080B582B085
:1012EC0000AF78607B683C4A934208D10121012011
:1012FC00FFF718FE00210120FFF714FE68E07B6861
:10130C00364A934208D101210220FFF70BFE00213F
:10131C000220FFF707FE5BE07B68314A934208D15D
:10132C0001210420FFF7FEFD00210420FFF7FAFD48
:10133C004EE07B682B4A934208D101210820FFF72D
:10134C00F1FD00210820FFF7EDFD41E07B68264A06
:10135C00934208D101211020FFF7E4FD0021102059
:10136C00FFF7E0FD34E07B68204A934208D101216D
:10137C002020FFF7D7FD00212020FFF7D3FD27E029
:10138C007B681B4A934208D101214020FFF7CAFD1C
:10139C0000214020FFF7C6FD1AE07B68154A9342F6
:1013AC0008D101218020FFF7BDFD00218020FFF72F
:1013BC00B9FD0DE07B68104A934209D101214FF42D
:1013CC008070FFF7AFFD00214FF48070FFF7AAFD8E
:1013DC0000BF0837BD4680BD00000240000402403B
:1013EC0000080240000C02400010024000140240B1
:1013FC0000180240001C02400020024080B487B05C
:10140C0000AF7860396000237B6100233B610023CF
:10141C00FB6000237B6176E001227B6902FA03F317
:10142C003B613B681B683A691340FB60FA683B6997
:10143C009A4265D17B681A687B695B00032101FACB
:10144C0003F3DB431A407B681A607B681A683B68BD
:10145C001B7919467B695B0001FA03F31A437B681D
:10146C001A603B681B79012B03D03B681B79022B5C
:10147C002ED17B689A687B695B00032101FA03F328
:10148C00DB431A407B689A607B689A683B685B799F
:10149C0019467B695B0001FA03F31A437B689A6077
:1014AC007B685A687B699BB2194601238B40DB43EE
:1014BC001A407B685A607B685B683A68927911467F
:1014CC007A6992B201FA02F292B21A437B685A60BC
:1014DC007B68DA687B699BB25B00032101FA03F33A
:1014EC00DB431A407B68DA607B68DA683B68DB793F
:1014FC0019467B695B0001FA03F31A437B68DA60D7
:10150C007B6901337B617B690F2B85D900BF00BFE1
:10151C001C37BD465DF8047B704780B483B000AFC8
:10152C0078607B684FF6FF721A607B6800221A7134
:10153C007B6800225A717B6800229A717B680022BA
:10154C00DA7100BF0C37BD465DF8047B704780B480
:10155C0085B000AF78600B467B804FF48033FB6026
:10156C007A88FB681343FB60FA687B68DA617A88D7
:10157C007B68DA61FA687B68DA617B68DB69FB603F
:10158C007B68DB69FB6000BF1437BD465DF8047BEC
:10159C00704780B485B000AF78600B467B80002329
:1015AC00FB737B681A697B881340002B02D00123E4
:1015BC00FB7301E00023FB73FB7B18461437BD461D
:1015CC005DF8047B704780B483B000AF78607B68B3
:1015DC001B699BB218460C37BD465DF8047B7047FF
:1015EC0080B485B000AF78600B467B800023FB7322
:1015FC007B685A697B881340002B02D00123FB7354
:10160C0001E00023FB73FB7B18461437BD465DF8E5
:10161C00047B704780B483B000AF78607B685B69F3
:10162C009BB218460C37BD465DF8047B704780B4FE
:10163C0083B000AF78600B467B807B687A881A8316
:10164C0000BF0C37BD465DF8047B704780B483B097
:10165C0000AF78600B467B807B687A885A8300BF2A
:10166C000C37BD465DF8047B704780B483B000AF87
:10167C0078600B467B8013467B707B78002B03D005
:10168C007B687A881A8302E07B687A885A8300BF69
:10169C000C37BD465DF8047B704780B483B000AF57
:1016AC0078600B467B807A887B685A6100BF0C3768
:1016BC00BD465DF8047B704780B483B000AF7860A2
:1016CC000B467B807B685A697B885A407B685A61E1
:1016DC0000BF0C37BD465DF8047B704780B485B005
:1016EC0000AF78600B467B8013467B700023FB6059
:1016FC000023BB607A787B8803F007039B0002FA17
:10170C0003F3FB607B88DB089BB21A467B680832CC
:10171C0053F822207B8803F007039B000F2101FA6A
:10172C0003F3DB437988C90889B2084602EA03014E
:10173C007B6800F1080243F822107B88DB089BB21F
:10174C001A467B68083253F82230FA681343BB60A0
:10175C007B88DB089BB21A467B680832B96843F871
:10176C00221000BF1437BD465DF8047B704700BFE4
:10177C00A82200080000002070000020700000204B
:10178C0074020020002103E00B4B5B5843500431E2
:10179C000A480B4B42189A42F6D30A4A02E000233D
:1017AC0042F8043B084B9A42F9D3FEF7EFFE00F0E7
:1017BC0069FAFEF771FD7047A822000800000020AE
:1017CC00700000207000002074020020FEE700234F
:1017DC0001461A46184600F099BA000008B5064BA7
:1017EC00044613B1002100F0EBFA044B1B6803B163
:1017FC0098472046FEF7B1FDCD1D0008CC01002016
:10180C00002310B50446C0E90033C0E904338360FB
:10181C0081814366C2818361194608225C3000F0E5
:10182C007FF90D4B63620D4BA3620D4BE3620D4BC5
:10183C0023630D4B24629C4206D003F16802944250
:10184C0002D0D0339C4205D104F15800BDE81040C1
:10185C0000F051BA10BD00BFA11A0008C71A000849
:10186C00FF1A0008251B000894000020024A0349B7
:10187C00034800F0F1B800BF0C0000207D210008E7
:10188C001C00002041680C4B994210B5044601D055
:10189C0000F06EFCA168094B994202D0204600F082
:1018AC0067FCE168064B994204D02046BDE8104025
:1018BC0000F05EBC10BD00BF94000020FC000020B6
:1018CC006401002008B54B6EDA0705D48B899B05A3
:1018DC0002D4886D00F013FA002008BD08B54B6ED9
:1018EC00DA0705D48B899B0502D4886D00F00DFABC
:1018FC00002008BD0C4B0D4A0D4810B504211A6090
:10190C000022FFF77DFF0A4B01221C46092103F13F
:10191C006800FFF775FF04F1D0000222BDE810400B
:10192C001221FFF76DBF00BFCC0100207918000811
:10193C0094000020014800F0E2B900BFDB01002058
:10194C00014800F0E2B900BFDB010020F8B5074602
:10195C00FFF7F0FF234B1B680BB9FFF7CBFF224EB1
:10196C00D6E90134013B0FD53568002D38D14FF441
:10197C00D671384600F0EEFA044628BB3060FFF70B
:10198C00DFFF0C233B601BE0B4F90C50D5B9174BAF
:10199C00E36004F15800656600F0ADF9FFF7D0FF85
:1019AC00C4E90155C4E904552560A56108222946FE
:1019BC0004F15C0000F0B4F8C4E90D55C4E912550B
:1019CC002046F8BD6834CDE70423056043600C3035
:1019DC002946A0604FF4D07200F0A2F8254634607E
:1019EC002E46BDE7CC0100200C0000200100FFFFBB
:1019FC0010B50446FFF79EFF236A1BB1BDE81040EB
:101A0C00FFF79EBF044B2362044B1B68002BF5D1E0
:101A1C00FFF770FFF2E700BF91180008CC0100201F
:101A2C0008B5FFF787FFBDE80840024A02490020CD
:101A3C0000F012B80C000020D118000808B5044AB8
:101A4C000449002000F008F8BDE80840FFF778BF13
:101A5C000C000020E91800082DE9F84307468846D9
:101A6C0014460026D4E90195B9F1010905D524687D
:101A7C00002CF7D13046BDE8F883AB89012B07D990
:101A8C00B5F90E30013303D029463846C04706431A
:101A9C006835E9E710B50C46B1F90E1000F0C8F83E
:101AAC000028ABBF636DA3891B1823F48053ACBF14
:101ABC006365A38110BD002070472DE9F0411F46DE
:101ACC008B89DB0505460C46164605D5B1F90E107B
:101ADC000223002200F09AF8A389B4F90E1023F423
:101AEC008053A38132463B462846BDE8F04100F0C6
:101AFC00B1B810B50C46B1F90E1000F087F8B4F976
:101B0C000C30421C0BBF23F4805343F48053A3814D
:101B1C00A38118BF606510BDB1F90E1000F008B8B4
:101B2C0002440346934200D1704703F8011BF9E7C6
:101B3C0038B5064D0023044608462B60FEF751FCD1
:101B4C00431C02D12B6803B1236038BDD0010020A7
:101B5C002D4B1B68834270B5044653D0C3691BB32D
:101B6C00DB6863B10025E369DB685959B1B9043509
:101B7C00802DF8D1E3692046D96800F07FF9E3693C
:101B8C00196811B1204600F079F9E3699D685DB1DF
:101B9C00294620462D6800F071F9F8E70E682046BA
:101BAC0000F06CF93146E1E7616911B1204600F0B3
:101BBC0065F9E16911B1204600F060F9216B11B1B2
:101BCC00204600F05BF9616B11B1204600F056F92C
:101BDC00A16B11B1204600F051F9A16C11B1204656
:101BEC0000F04CF9616C11B1204600F047F9E16A44
:101BFC0011B1204600F042F9236A1BB12046BDE822
:101C0C007040184770BD00BF1800002038B5074D54
:101C1C0004460846114600222A601A46FEF708FCC4
:101C2C00431C02D12B6803B1236038BDD0010020C6
:101C3C0038B5074D04460846114600222A601A465C
:101C4C00FEF796FB431C02D12B6803B1236038BD11
:101C5C00D001002038B5074D044608461146002235
:101C6C002A601A46FEF7A1FB431C02D12B6803B174
:101C7C00236038BDD0010020014B1868704700BFAD
:101C8C001800002070B50D4B0D4D5B1B9C100026F1
:101C9C00A64209D100F0BAFA0A4D0B4B5B1B9C1003
:101CAC000026A64205D170BD55F8043B9847013675
:101CBC00EEE755F8043B98470136F2E7A0220008FE
:101CCC00A0220008A0220008A422000838B5074D65
:101CDC00074C641BA4101CB9BDE8384000F09CBA3A
:101CEC00013C55F824309847F5E700BFA4220008C2
:101CFC00A8220008704770477047704770477047BC
:101D0C000120704701207047704770472DE9F0475C
:101D1C00264E07463068924688469946FFF7EFFFF5
:101D2C00234A15683DB9234B1360234A12B112683C
:101D3C00C3F888201F4D6C681F2C06DD3068FFF738
:101D4C00E4FF4FF0FF30BDE8F0872FB3D5F88800E3
:101D5C0068B91A4B002BF1D04FF48470AFF30080AC
:101D6C000028EBD00023C0E94033C5F888006C682C
:101D7C0040F824A00122D0F80031A24000EB8401ED
:101D8C001343C0F80031022FC1F8809002BFD0F885
:101D9C0004311343C0F80431631C023430686B60A7
:101DAC0045F82480FFF7B1FF0020CCE76C00002041
:101DBC0068020020DC010020000000000000000090
:101DCC002DE9F74FDFF8AC800190D8F80000DFF870
:101DDC00A8900F46FFF793FFD9F8005035B9D8F803
:101DEC00000003B0BDE8F04FFFF78FBF6C68D5F86B
:101DFC0088B0661E013405EB84040BF1800A002EBA
:101E0C00EDDB4FB1BBF1000F02D1013E043CF6E714
:101E1C005AF82620BA42F8D1696822680139B142D1
:101E2C0016BF00236E602360002AEED06B6800930F
:101E3C00BBF1000F07D0DBF80011012303FA06FCFD
:101E4C001CEA010F09D190476968009BD9F8002062
:101E5C009942C1D19542D8D0BEE7DBF804015BF8BA
:101E6C0026101CEA000F02D101989047ECE70846B7
:101E7C009047E9E76C0000206802002038B5054661
:101E8C00002941D051F8043C0C1F002BB8BFE418BA
:101E9C0000F0E0F81D4A136833B9636014602846FB
:101EAC00BDE8384000F0DCB8A34208D920682118FE
:101EBC008B4201BF19685B6809182160EDE71A466F
:101ECC005B680BB1A342FAD911685018A0420BD130
:101EDC0020680144501883421160E0D118685B6897
:101EEC00536008441060DAE702D90C232B60D6E764
:101EFC00206821188B4204BF19685B68636004BFBB
:101F0C00091821605460CAE738BD00BF7002002078
:101F1C0070B50F4E0C463168054611B900F064F9E6
:101F2C0030602146284600F05FF9431C03D14FF086
:101F3C00FF34204670BDC41C24F00304A042F8D02A
:101F4C00211A284600F050F90130F2D1EFE700BF1A
:101F5C006C0200202DE9F843CD1C25F00305083553
:101F6C000C2D38BF0C25002D064601DBA94204D9E7
:101F7C000C2333600020BDE8F883DFF8D48000F038
:101F8C0069F8D8F800301C4644BB29463046FFF7A8
:101F9C00BFFF431C044658D1D8F800402746002FF9
:101FAC0043D1002C4BD023683946304604EB03094F
:101FBC0000F01AF9814542D121686D1A2946304644
:101FCC00FFF7A6FF01303AD023682B442360D8F8E2
:101FDC0000305A6862BBC8F800700FE02268521BD0
:101FEC0020D40B2A17D96119A342256018BF596058
:101FFC00636808BFC8F8001062514B60304600F0AF
:10200C002FF804F10B00231D20F00700C21A1CBF8F
:10201C001B1AA350AFE76268A3420CBFC8F800209C
:10202C005A60EBE723466468AEE73C467F68B6E748
:10203C001A465B68A342FBD100235360DEE70C23F6
:10204C003360304600F00CF894E70560D6E700BF2B
:10205C00700200200148FFF752BE00BFD8010020DB
:10206C000148FFF752BE00BFD8010020B1F90C2087
:10207C002DE9F041160705460C4651D44B68002B50
:10208C0002DC0B6C002B49DDE66A002E46D00023E7
:10209C0012F480522F682B6031D0626DA3895907DE
:1020AC0005D56368D21A636B0BB1236CD21A00236B
:1020BC00E66A216A2846B047421CB4F90C3006D1B6
:1020CC0029681D2946D8294ACA40D60742D500227C
:1020DC006260D9042269226004D5421C01D12B68AC
:1020EC0003B96065616B2F60C1B104F1440399427F
:1020FC0002D02846FFF7C2FE002363630EE0216A7C
:10210C0001232846B0470246501CC7D12B68002B30
:10211C00C4D01D2B01D0162B1AD12F6000201EE02D
:10212C000F69002FFAD093070E6808BF4B690F6038
:10213C0018BF0023A6EB07088B60B8F1000FEDDD8C
:10214C00216AA66A43463A462846B047002808DC6E
:10215C00B4F90C3043F04003A3814FF0FF30BDE8DD
:10216C00F0810744A8EB0008E7E700BF010040201E
:10217C0038B50B6905460C4613B90025284638BD01
:10218C0018B1036A0BB9FFF733FCB4F90C30002B10
:10219C00F3D0626ED00704D4990502D4A06DFFF77A
:1021AC00AEFD28462146FFF761FF636EDA07054650
:1021BC00E4D4A3899B05E1D4A06DFFF7A6FDDDE770
:1021CC00014620B9044A05490548FFF745BC054BB3
:1021DC001868FFF7CDBF00BF0C0000207D21000860
:1021EC001C0000201800002038B5064D00230446C2
:1021FC0008462B60FEF79DF9431C02D12B6803B1F6
:10220C00236038BDD001002000000000F8B500BFED
:10221C00F8BC08BC9E467047F8B500BFF8BC08BCBB
:04222C009E46704713
:102230003E410C41114127413641034106411541C0
:102240000F410E41264113412941024119410A41E2
:102250000B41000000000000000000000102030428
:10226000060708090000000001020304010203043C
:10227000060708093E410C411141274136410341FF
:10228000064115410F410E412641134129410241AA
:0822900019410A410B41000055
:082298009CDFFF7F0100000044
:0422A000150200081B
:0422A400ED01000840
:1022A800000000008C000020007A030A00000000F3
:1022B80003000000940000201C0000200000000023
:1022C80094000020FC0000206401002000000000B1
:1022D80000000000000000000000000000000000F6
:1022E80000000000000000000000000000000000E6
:1022F80000000000000000000000000000000000D6
:102308000000000000000000CD1D0008DA010020D8
:040000050800179147
:00000001FF
