:020000040800F2
:1000000000000320B5020008AD020008AD020008A0
:10001000AD020008AD020008AD02000800000000BB
:10002000000000000000000000000000AD02000819
:10003000AD02000800000000AD020008AD0200089B
:10004000AD020008AD020008AD020008AD020008D4
:1000500000000000AD020008AD020008AD0200087B
:10006000AD020008AD020008AD020008AD020008B4
:10007000AD020008AD020008AD020008AD020008A4
:10008000AD020008AD020008AD020008AD02000894
:10009000AD020008AD020008AD020008AD02000884
:1000A000AD020008AD020008AD020008AD02000874
:1000B000AD020008AD020008AD020008AD02000864
:1000C000AD020008AD020008AD020008AD02000854
:1000D000AD020008AD020008AD020008AD02000844
:1000E000AD020008AD020008AD020008AD02000834
:1000F000AD020008AD020008AD020008AD02000824
:10010000AD020008AD020008AD020008AD02000813
:10011000AD020008AD020008AD020008AD02000803
:10012000AD020008AD020008AD020008AD020008F3
:10013000AD020008AD020008AD020008AD020008E3
:10014000AD020008AD020008AD020008AD020008D3
:10015000AD020008AD020008AD020008AD020008C3
:10016000AD020008AD020008AD020008AD020008B3
:10017000AD020008AD020008AD020008AD020008A3
:10018000AD020008AD020008AD020008AD02000893
:10019000AD020008AD020008AD020008AD02000883
:1001A000AD020008AD020008AD0200080348044B90
:1001B000834202D0034B03B11847704774000020FC
:1001C00074000020000000000548064B1B1AD90FE0
:1001D00001EBA301491002D0034B03B1184770474C
:1001E00074000020740000200000000010B5064CD0
:1001F000237843B9FFF7DAFF044B13B10448AFF398
:1002000000800123237010BD740000200000000056
:100210004810000808B5044B1BB104490448AFF36B
:100220000080BDE80840CFE7000000007800002013
:1002300048100008A3F5803A704700BF154B002B0B
:1002400008BF114B9D46FFF7F5FF00218B460F4677
:100250001148124A121A00F04EFB0C4B002B00D032
:1002600098470B4B002B00D098470020002104003A
:100270000D000B4800F09AF900F0F0FB2000290077
:1002800000F010F800F098F90000080000000000ED
:100290000000000000000000740000207802002030
:1002A000A50A000880B400AF00BFFDE780B400AF2E
:1002B00000BFFDE780B586B000AF1B4A1B4BD31AC9
:1002C0007B601A4B7B611A4B3B610023FB600AE0A9
:1002D0003A69531C3B617B69591C796112781A7029
:1002E000FB680133FB60FA687B689A42F0D3114ADD
:1002F000114BD31A7B60104B7B610023BB6007E07E
:100300007B695A1C7A6100221A70BB680133BB609A
:10031000BA687B689A42F3D300F0A0FBFFF7C2FFF4
:1003200000BF1837BD4680BD6C00002000000020D3
:1003300054100008780200207400002080B400AF40
:1003400000BFBD465DF8047B704780B400AF012359
:100350001846BD465DF8047B704780B582B000AF9B
:100360007860396000F074FB034616221A604FF083
:10037000FF3318460837BD4680BD80B582B000AF58
:1003800078604FF0FF317868FFF7E7FF00BFFDE7C7
:1003900080B586B000AFF860B9607A6000237B61F9
:1003A0000AE0AFF300800146BB685A1CBA60CAB2CB
:1003B0001A707B6901337B617A697B689A42F0DB52
:1003C0007B6818461837BD4680BD80B586B000AF43
:1003D000F860B9607A6000237B6109E0BB685A1C51
:1003E000BA601B781846AFF300807B6901337B61EC
:1003F0007A697B689A42F1DB7B6818461837BD46FC
:1004000080BD80B483B000AF78604FF0FF331846F2
:100410000C37BD465DF8047B704780B483B000AFF5
:10042000786039603B684FF400525A6000231846E8
:100430000C37BD465DF8047B704780B483B000AFD5
:100440007860012318460C37BD465DF8047B704781
:1004500080B485B000AFF860B9607A6000231846B8
:100460001437BD465DF8047B70470EB480B482B08B
:1004700000AF78604FF0FF3318460837BD465DF88F
:10048000047B03B0704780B582B000AF786000F0A5
:10049000DFFA03460A221A604FF0FF331846083786
:1004A000BD4680BD80B582B000AF786000F0D0FA64
:1004B000034602221A604FF0FF3318460837BD4644
:1004C00080BD80B483B000AF78604FF0FF33184632
:1004D0000C37BD465DF8047B704780B483B000AF35
:1004E000786039603B684FF400525A600023184628
:1004F0000C37BD465DF8047B704780B582B000AF15
:100500007860396000F0A4FA03461F221A604FF0A9
:10051000FF3318460837BD4680BD80B500AF00F0F8
:1005200097FA03460B221A604FF0FF33184680BD3E
:1005300080B584B000AFF860B9607A6000F088FAE6
:1005400003460C221A604FF0FF3318461037BD46A1
:1005500080BD80B584B000AF7860124B1B68002B63
:1005600002D1104B104A1A600E4B1B68FB600D4BFA
:100570001A687B6813446A46934207D900F068FA08
:1005800003460C221A604FF0FF3306E0054B1A6851
:100590007B681344034A1360FB6818461037BD4656
:1005A00080BD00BF94000020780200200023014697
:1005B0001A46184600F096BA08B5064B044613B121
:1005C000002100F0EBFA044B1B6803B1984720466A
:1005D000FFF7D3FE9D0B0008D0010020002310B5CB
:1005E0000446C0E90033C0E9043383608181436677
:1005F000C2818361194608225C3000F07CF90D4B02
:1006000063620D4BA3620D4BE3620D4B23630D4BF5
:1006100024629C4206D003F16802944202D0D03397
:100620009C4205D104F15800BDE8104000F04FBADB
:1006300010BD00BF6D08000893080008CB08000833
:10064000EF08000898000020024A0349034800F020
:10065000EFB800BF08000020510F0008180000206C
:1006600041680C4B994210B5044601D000F070FC73
:10067000A168094B994202D0204600F069FCE1686C
:10068000064B994204D02046BDE8104000F060BC03
:1006900010BD00BF9800002000010020680100206C
:1006A00008B54B6EDA0705D48B899B0502D4886D9B
:1006B00000F011FA002008BD08B54B6EDA0705D42A
:1006C0008B899B0502D4886D00F00BFA002008BDD1
:1006D00010B50B4B0B4C0C4A1A602046002204212B
:1006E000FFF77CFF04F1680001220921FFF776FF84
:1006F00004F1D0000222BDE810401221FFF76EBFC6
:10070000D00100209800002049060008014800F0B0
:10071000E2B900BFDF010020014800F0E2B900BFEC
:10072000DF010020F8B50746FFF7F0FF234B1B68F9
:100730000BB9FFF7CDFF224ED6E90134013B0FD5AF
:100740003568002D37D14FF4D671384600F0F0FAF5
:10075000044628BB3060FFF7DFFF0C233B601BE043
:10076000B4F90C50D5B9174BE36004F15800656635
:1007700000F0ADF9FFF7D0FFC4E90155C4E9045515
:100780002560A5610822294604F15C0000F0B3F859
:10079000C4E90D55C4E912552046F8BD6834CDE7CB
:1007A0000423056043600C30A0604FF4D0722946EA
:1007B00000F0A1F834603668BEE700BFD001002029
:1007C000080000200100FFFF10B50446FFF79EFF60
:1007D000236A1BB1BDE81040FFF79EBF044B2362A4
:1007E000044B1B68002BF5D1FFF772FFF2E700BF47
:1007F00061060008D001002008B5FFF787FFBDE8BB
:100800000840024A0249002000F012B80800002007
:10081000A106000808B5044A0449002000F008F8C1
:10082000BDE80840FFF778BF08000020B9060008BF
:100830002DE9F8430746884614460026D4E9019579
:10084000B9F1010905D52468002CF7D13046BDE87F
:10085000F883AB89012B07D9B5F90E30013303D0EA
:1008600029463846C04706436835E9E710B50C46C7
:10087000B1F90E1000F0C8F80028ABBF636DA38972
:100880001B1823F48053ACBF6365A38110BD002007
:1008900070472DE9F0411F468B89DB0505460C4664
:1008A000164605D5B1F90E100223002200F09AF881
:1008B000A389B4F90E1023F48053A38132463B463A
:1008C0002846BDE8F04100F0B1B810B50C46B1F9CA
:1008D0000E1000F087F8431CA38915BF606523F450
:1008E000805343F48053A38118BFA38110BDB1F995
:1008F0000E1000F009B802440346934200D170473D
:1009000003F8011BF9E7000038B5064D0023044643
:1009100008462B60FFF775FD431C02D12B6803B11D
:10092000236038BDD40100202D4B1B68834270B575
:10093000044653D0C3691BB3DB6863B10025E36988
:10094000DB685959B1B90435802DF8D1E3692046E7
:10095000D96800F081F9E369196811B1204600F007
:100960007BF9E3699D685DB1294620462D6800F05A
:1009700073F9F8E70E68204600F06EF93146E1E7BA
:10098000616911B1204600F067F9E16911B12046B3
:1009900000F062F9216B11B1204600F05DF9616B46
:1009A00011B1204600F058F9A16B11B1204600F0BA
:1009B00053F9A16C11B1204600F04EF9616C11B1F0
:1009C000204600F049F9E16A11B1204600F044F9EF
:1009D000236A1BB12046BDE87040184770BD00BFB8
:1009E0001400002038B5074D044608461146002281
:1009F0002A601A46FFF72CFD431C02D12B6803B175
:100A0000236038BDD401002038B5074D04460846A0
:100A1000114600222A601A46FFF7BAFC431C02D195
:100A20002B6803B1236038BDD401002038B5074DD1
:100A300004460846114600222A601A46FFF7C5FC04
:100A4000431C02D12B6803B1236038BDD4010020C0
:100A5000014B1868704700BF1400002070B50D4DA1
:100A60000D4C641BA4100026A64209D10B4D0C4C62
:100A700000F0BAFA641BA4100026A64205D170BD8E
:100A800055F8043B98470136EEE755F8043B984784
:100A90000136F2E700000000000000000000000046
:100AA0000000000038B5074D074C641BA4101CB9AA
:100AB000BDE8384000F09EBA013C55F82430984714
:100AC000F5E700BF0000000000000000704770471D
:100AD000704770477047704701207047012070478A
:100AE000704770472DE9F843274D0746286891461F
:100AF0000E469846FFF7EFFF244A14683CB9244B92
:100B00001360244A12B11268C3F88820204C63682D
:100B10001F2B06DD2868FFF7E4FF4FF0FF30BDE82C
:100B2000F8832FB3D4F8880068B91B4B002BF1D0A1
:100B30004FF48470AFF300800028EBD00023C0E9AD
:100B40004033C4F88800636840F8239001229A403B
:100B500000EB8301D0F800311343C0F80031022FBD
:100B6000C1F8808002BFD0F804311343C0F80431CB
:100B7000636828685A1C0233626044F82360FFF7F8
:100B8000B0FF0020CBE700BF680000206C0200200F
:100B9000E001002000000000000000002DE9F74FF8
:100BA000DFF8AC800190D8F80000DFF8A8900F467D
:100BB000FFF791FFD9F8005035B9D8F8000003B01D
:100BC000BDE8F04FFFF78DBF6C68D5F888B0661EA2
:100BD000013405EB84040BF1800A002EEDDB4FB1EC
:100BE000BBF1000F02D1013E043CF6E75AF8262083
:100BF000BA42F8D1696822680139B14216BF0023B0
:100C00006E602360002AEED06B680093BBF1000F8A
:100C100007D0DBF80011012303FA06FC1CEA010FE0
:100C200009D190476968009BD9F800209942C1D149
:100C30009542D8D0BEE7DBF804015BF826101CEA29
:100C4000000F02D101989047ECE708469047E9E78A
:100C5000680000206C02002038B50546002941D00C
:100C600051F8043C0C1F002BB8BFE41800F0E0F86A
:100C70001D4A136833B9636014602846BDE83840E4
:100C800000F0DCB8A34208D9206821188B4201BFCC
:100C900019685B6809182160EDE71A465B680BB1BB
:100CA000A342FAD911685018A0420BD12068014420
:100CB000501883421160E0D118685B6853600844A3
:100CC0001060DAE702D90C232B60D6E720682118E0
:100CD0008B4204BF19685B68636004BF0918216018
:100CE0005460CAE738BD00BF7402002070B50F4ED3
:100CF0000C463168054611B900F066F930602146AE
:100D0000284600F061F9431C03D14FF0FF34204620
:100D100070BDC41C24F00304A042F8D0211A284658
:100D200000F052F90130F2D1EFE700BF700200206D
:100D30002DE9F843CD1C25F0030508350C2D38BFEF
:100D40000C25002D064601DBA94204D90C23336093
:100D50000020BDE8F883DFF8D48000F069F8D8F807
:100D600000301C4644BB29463046FFF7BFFF431CFA
:100D7000044658D1D8F800402746002F43D1002C14
:100D80004BD023683946304604EB030900F01CF9C8
:100D9000814542D121686D1A29463046FFF7A6FFEA
:100DA00001303AD023682B442360D8F800305A68C9
:100DB00062BBC8F800700FE02268521B20D40B2AD7
:100DC00017D96119A342256018BF5960636808BF2D
:100DD000C8F8001062514B60304600F02FF804F163
:100DE0000B00231D20F00700C21A1CBF1B1AA350C2
:100DF000AFE76268A3420CBFC8F800205A60EBE777
:100E000023466468AEE73C467F68B6E71A465B68EF
:100E1000A342FBD100235360DEE70C23336030464E
:100E200000F00CF894E70560D6E700BF74020020DC
:100E30000148FFF750BE00BFDC0100200148FFF76A
:100E400050BE00BFDC010020B1F90C202DE9F041BB
:100E5000160705460C4654D44B68002B02DC0B6C7D
:100E6000002B48DDE66A002E45D0002312F48052A4
:100E70002F68216A2B6030D0626DA389590705D590
:100E80006368D21A636B0BB1236CD21A0023E66A33
:100E9000216A2846B047431CA38906D129681D2929
:100EA0002BD82A4ACA40D60727D500226260D90427
:100EB0002269226004D5421C01D12B6803B9606508
:100EC000616B2F60B9B104F14403994202D0284606
:100ED000FFF7C2FE002363630DE001232846B047FD
:100EE0000246501CC9D12B68002BC6D01D2B01D047
:100EF000162B1ED12F60002022E043F040031BB2CE
:100F00001BE00F69002FF6D093070E6808BF4B69EE
:100F10000F6018BF0023A6EB07088B60B8F1000F25
:100F2000E9DD216AA66A43463A462846B0470028CA
:100F300008DCB4F90C3043F04003A3814FF0FF30DC
:100F4000BDE8F0810744A8EB0008E7E70100402076
:100F500038B50B6905460C4613B90025284638BD3F
:100F600018B1036A0BB9FFF72FFCB4F90C30002B52
:100F7000F3D0626ED00704D4990502D4A06DFFF7B8
:100F8000AAFD28462146FFF75FFF636EDA07054694
:100F9000E4D4A3899B05E1D4A06DFFF7A2FDDDE7B2
:100FA000014620B9044A05490548FFF741BC054BF5
:100FB0001868FFF7CDBF00BF08000020510F0008E0
:100FC000180000201400002038B5064D0023044608
:100FD00008462B60FFF7BDFA431C02D12B6803B112
:100FE000236038BDD4010020F8B500BFF8BC08BCB0
:100FF0009E467047F8B500BFF8BC08BC9E467047D7
:101000003E410C4111412741364103410641154102
:101010000F410E41264113412941024119410A4124
:101020000B4100003E410C41114127413641034133
:10103000064115410F410E4126411341294102410C
:0810400019410A410B410000B7
:0410480000000000A4
:08104C00E8F1FF7F0100000044
:1010540000000000900000200000000003000000D9
:1010640098000020180000200000000098000020D4
:1010740000010020680100200000000000000000C2
:10108400000000000000000000000000000000005C
:10109400000000000000000000000000000000004C
:1010A400000000000000000000000000000000003C
:0C10B400000000009D0B0008DE01002081
:0410C000150200080D
:0410C400ED01000832
:04000005080002B538
:00000001FF
