:020000040800F2
:1000000000000320510900084909000825080008DC
:10001000390800084D0800084909000800000000E0
:100020000000000000000000000000004909000876
:10003000490900080000000059070008F9070008F6
:100040004909000849090008490900084909000848
:100050000000000049090008490900084909000892
:100060004909000849090008490900084909000828
:100070004909000849090008490900084909000818
:100080004909000849090008490900084909000808
:1000900049090008490900084909000849090008F8
:1000A00049090008490900084909000849090008E8
:1000B00049090008490900084909000849090008D8
:1000C00049090008490900084909000849090008C8
:1000D00049090008490900084909000849090008B8
:1000E00049090008490900084909000849090008A8
:1000F0004909000849090008490900084909000898
:100100004909000849090008490900084909000887
:100110004909000849090008490900084909000877
:100120004909000849090008490900084909000867
:100130004909000849090008490900084909000857
:100140004909000849090008490900084909000847
:100150004909000849090008490900084909000837
:100160004909000849090008490900084909000827
:100170004909000849090008490900084909000817
:100180004909000849090008490900084909000807
:1001900049090008490900084909000849090008F7
:1001A0004909000849090008490900080348044BA7
:1001B000834202D0034B03B1184770477C060020EE
:1001C0007C060020000000000548064B1B1AD90FD2
:1001D00001EBA301491002D0034B03B1184770474C
:1001E0007C0600207C0600200000000010B5064CB4
:1001F000237843B9FFF7DAFF044B13B10448AFF398
:1002000000800123237010BD800600200000000044
:100210003435000808B5044B1BB104490448AFF35A
:100220000080BDE80840CFE7000000008406002001
:1002300034350008002A01D002F5807A704700BFEB
:10024000162030A1ABBE2F484168002901D0344AA6
:1002500011600168002901D1304901608168C268DC
:10026000294B002900D00B469D46FFF7E3FF0021F4
:100270008B460F462548264A121A00F05FFF02F00F
:1002800029FF15202449ABBE23490968002001B489
:100290000B780131002B15D0202BF9D0222B01D067
:1002A000272B01D11A0001E02022013902B40130CC
:1002B0000B780131002B05D09A42F9D100224B1E58
:1002C0001A70E5E76946020092006A446B469A425A
:1002D00006D9043A14681D6815601C600433F6E7FB
:1002E0006C460725AC43A54604000D00094800F004
:1002F000E1FC00F0FFFF2000290000F013F800F0FF
:10030000DFFC00BF04000020000000008006002089
:10031000C80A00204513000814010020C80A002064
:100320006806002080B500AF00F040F902F0D2FE70
:10033000094800F0A9F8094800F0AEFE00F0A9F85D
:1003400000F0A2FA4FF47A7000F06AF800F0B4F905
:1003500000F00AF800BFFDE700EC0220303400088E
:1003600080B400AF00BFFDE780B500AF094800F0E2
:1003700093FE002000F0B8FA4FF47A7000F0BCF958
:10038000002000F0C9FA4FF47A7000F0B5F900BF10
:10039000ECE700BF5834000880B500AF094800F012
:1003A0007BFE0E2000F0A0FA4FF47A7000F0A4F962
:1003B0000E2000F0B1FA4FF47A7000F09DF900BF02
:1003C000ECE700BF6C34000880B500AF084800F0CF
:1003D00063FE072000F088FAFA2000F08DF907206C
:1003E00000F09AFAFA2000F087F900BFEEE700BFAC
:1003F0008034000880B500AF084800F04DFE0E20A4
:1004000000F072FA7D2000F077F90E2000F084FAF7
:100410007D2000F071F900BFEEE700BF94340008C2
:1004200080B487B000AF7860144B7B61144B3B61A4
:10043000144A7B68B2FBF3F3013BFB607B6900224B
:100440001A607B691A68FB681A437B691A603B690A
:100450001B6843F002023B691A603B691B6843F06A
:1004600004023B691A603B691B6843F001023B6967
:100470001A6000BF1C37BD4680BC704714E000E026
:1004800010E000E00024F400034683F3088870477E
:1004900000BF80B485B000AF394B00221A72384BD0
:1004A00000221A76364B002283F82820344B002293
:1004B00083F83820324B002283F84820304B314AF1
:1004C0001A602F4B304A1A612D4B304A1A622C4B5E
:1004D0002F4A1A632A4B2F4A1A64294B2E4ADA6094
:1004E000274B2E4ADA61264B2D4ADA62244B2D4ADD
:1004F000DA63234B2C4ADA640023BB6037E0204ADE
:10050000BB681B0113441B68FB60FB68043BFB607A
:10051000FB684FF080721A60FB68043BFB60184A6E
:10052000BB681B0113440C331B681A46FB681A6036
:10053000FB68043BFB60FB686FF002021A6000235B
:100540007B6008E0FB68043BFB60FB6800221A60EC
:100550007B6801337B607B680C2BF3DDFA6808490C
:10056000BB681B010B441A60BB680133BB60BB68EE
:10057000042BC4DD00BF00BF1437BD4680BC7047EC
:10058000A006002000F002200000032000FC022052
:1005900000F8022000F4022061030008690300084B
:1005A00099030008C9030008F503000880B483B06C
:1005B00000AF0C4B7B607B681B6843F480327B6828
:1005C0001A607B681B6843F400327B681A607B68A2
:1005D0001B6843F480227B681A6000BF0C37BD465D
:1005E00080BC704724ED00E080B400AF044B1B7862
:1005F000044A1B0113441B681846BD4680BC704763
:100600001C010020A006002080B483B000AF7860F9
:10061000054B1B78054A1B0113447A681A6000BF1A
:100620000C37BD4680BC70471C010020A00600208E
:1006300080B483B000AFFF237B6000233B6024E0E5
:100640001A4B1B780133DAB2184B1A70174B1A7811
:10065000174BA3FB021399080B469B000B44D31ABC
:10066000DAB2124B1A70114B1B78124A1B01134459
:1006700008331B787B607B68002B03D10B4B1B7806
:10068000002B06D13B6801333B603B68042BD7DD70
:1006900000E000BF7B68002B02D0044B00221A70E0
:1006A00000BF0C37BD4680BC704700BF1C01002056
:1006B000CDCCCCCCA006002000B5FFF795FF80F391
:1006C00009885DF804EB4FF0020080F3148870474E
:1006D00000BF80B483B000AF064B7B607B681B68B3
:1006E00043F080527B681A6000BF0C37BD4680BC67
:1006F000704700BF04ED00E080B582B000AF7860C5
:100700004FF0010080F31088104B1B78002B15D0A0
:100710000F4B1A680D4B1B7818467B681A440D491D
:1007200003010B4404331A60084B1B78094A1B0170
:1007300013440833FF221A70FFF7CBFF4FF000007D
:1007400080F3108800BF0837BD4680BD1C01002023
:100750009C060020A0060020EFF3098020E9F00F9E
:1007600000B5FFF751FFFFF763FFFFF73DFFB0E86C
:10077000F00F80F309885DF804EB704700BF80B488
:1007800000AF044B1B680133024A136000BFBD4633
:1007900080BC70479C06002080B483B000AF01236A
:1007A0007B601BE0124A7B681B01134408331B78F3
:1007B000002B10D00E4A7B681B01134404331A68C7
:1007C0000C4B1B689A4206D1094A7B681B011344F3
:1007D000083300221A707B6801337B607B68042B2E
:1007E000E0DD00BF00BF0C37BD4680BC704700BFD6
:1007F000A00600209C06002080B582B000AF084B08
:100800007B60FFF7BCFFFFF7C7FF7B681B6843F007
:1008100080527B681A6000BF0837BD4680BD00BFAC
:1008200004ED00E080B500AF024800F035FC00BFE9
:10083000FDE700BFA834000880B500AF024800F013
:100840002BFC00BFFDE700BFC034000880B500AF3F
:10085000024800F021FC00BFFDE700BFD8340008CB
:1008600080B485B000AF78600023FB6002E0FB68D5
:100870000133FB60FA687B689A42F8D300BF00BF7F
:100880001437BD4680BC704780B582B000AF144BB2
:100890007B60144B3B607B681B6843F002027B6803
:1008A0001A603B681B6843F001023B681A603B68B2
:1008B0001B6843F080523B681A603B681B6843F436
:1008C00080423B681A60002000F026F80E2000F0FD
:1008D00023F8072000F020F800BF0837BD4680BD90
:1008E000303802400004024080B485B000AF0346B7
:1008F000FB71084BFB60FB681B68FA79012101FA68
:1009000002F21A43FB681A6000BF1437BD4680BC70
:10091000704700BF1404024080B485B000AF0346A6
:10092000FB71084BFB60FB681B68FA79012101FA37
:1009300002F2D2431A40FB681A6000BF1437BD466A
:1009400080BC70471404024080B400AF00BFFDE7D4
:1009500080B586B000AF1B4A1B4BD31A7B601A4B85
:100960007B611A4B3B610023FB600AE03A69531C30
:100970003B617B69591C796112781A70FB680133FD
:10098000FB60FA687B689A42F0D3114A114BD31A84
:100990007B60104B7B610023BB6007E07B695A1CC6
:1009A0007A6100221A70BB680133BB60BA687B6849
:1009B0009A42F3D300F09EFCFFF7B4FC00BF183757
:1009C000BD4680BD7406002000000020C835000828
:1009D000C80A00208006002000000000000000007F
:1009E0000000000000000000000000000000000007
:1009F00000000000000000000000000000000000F7
:100A000030B490F800F020F007016FF0000C10F007
:100A1000070491F820F040F048804FF000046FF098
:100A20000700D1E9002391F840F000F1080082FAB4
:100A30004CF2A4FA8CF283FA4CF3A2FA8CF34BBB7F
:100A4000D1E9022382FA4CF200F10800A4FA8CF2F8
:100A500083FA4CF3A2FA8CF3E3B9D1E9042382FAC6
:100A60004CF200F10800A4FA8CF283FA4CF3A2FADB
:100A70008CF37BB9D1E9062301F1200182FA4CF213
:100A800000F10800A4FA8CF283FA4CF3A2FA8CF37A
:100A9000002BC6D0002A04BF04301A4612BAB2FA9C
:100AA00082F200EBD20030BC7047D1E9002304F0A1
:100AB0000305C4F100004FEAC50514F0040F91F8D6
:100AC00040F00CFA05F562EA05021CBF63EA050373
:100AD00062464FF00004AAE700000000000000009A
:100AE00001F0FF01102A2BDB10F0070F08D010F8DF
:100AF000013B013A8B422DD010F0070F42B3F6D1E3
:100B0000F0B441EA012141EA014122F007047FF0FB
:100B100000070023F0E80256083C85EA010586EA52
:100B2000010685FA47F5A3FA87F586FA47F6A5FA8E
:100B300087F68EB9EED1F0BC01F0FF0102F007029A
:100B400032B110F8013B013A83EA010313B1F8D145
:100B50000020704701387047002D06BF3546033826
:100B6000073815F0010F07D1013015F4807F02BF5F
:100B7000013015F4C03F0130F0BC0138704700BFB0
:100B8000844641EA000313F003036DD1403A41D398
:100B900051F8043B40F8043B51F8043B40F8043B57
:100BA00051F8043B40F8043B51F8043B40F8043B47
:100BB00051F8043B40F8043B51F8043B40F8043B37
:100BC00051F8043B40F8043B51F8043B40F8043B27
:100BD00051F8043B40F8043B51F8043B40F8043B17
:100BE00051F8043B40F8043B51F8043B40F8043B07
:100BF00051F8043B40F8043B51F8043B40F8043BF7
:100C000051F8043B40F8043B51F8043B40F8043BE6
:100C1000403ABDD2303211D351F8043B40F8043B86
:100C200051F8043B40F8043B51F8043B40F8043BC6
:100C300051F8043B40F8043B103AEDD20C3205D396
:100C400051F8043B40F8043B043AF9D2043208D08E
:100C5000D2071CBF11F8013B00F8013B01D30B8800
:100C600003806046704700BF082A13D38B078DD0DE
:100C700010F003038AD0C3F10403D21ADB071CBFB0
:100C800011F8013B00F8013B80D331F8023B20F81A
:100C9000023B7BE7043AD9D3013A11F8013B00F853
:100CA000013BF9D20B7803704B7843708B788370DB
:100CB00060467047002301461A46184600F06ABB9A
:100CC00008B50021044600F0AFFB034B1B6803B1DD
:100CD0009847204601F06AFE28080020024A03498E
:100CE000034800F069B900BF20010020151D00086D
:100CF000300100200C4B4168994210B5044601D0E8
:100D000001F008F8A168094B994202D0204601F091
:100D100001F8E168064B994204D02046BDE8104036
:100D200000F0F8BF10BD00BFF006002058070020FB
:100D3000C007002008B54B6EDA0702D48B899B05EB
:100D400001D5002008BD886D00F01AFB002008BD09
:100D500008B54B6EDA0702D48B899B0501D50020BC
:100D600008BD886D00F014FB002008BD2DE9F84394
:100D7000314A324C3249DFF8CC90DFF8CC80334F27
:100D80001160002504232946082204F15C00C4E90F
:100D900003352F4EA560C4E90055C4E905556566C5
:100DA00000F0CCF904F15800C4E90749C4E9098707
:100DB000E66200F0DDFA2946264B6367082204F15B
:100DC000C400C4E91A55C4E91E552567C4F8CC50BF
:100DD000C4F8805000F0B2F904F1680304F1C000D7
:100DE000C4F88430C4E92298C4E9247600F0C0FA3B
:100DF000194BC4F8DC30294604F596700822C4E982
:100E00003455C4E93855C4F8D850C4F83451C4F83E
:100E1000E85000F093F904F1D003C4E93D87C4F829
:100E2000F09004F59470C4F8FC60C4F8EC30BDE8B0
:100E3000F84300F09DBA00BF28080020F00600200B
:100E4000DD0C0008A9100008D110000811110008DD
:100E5000351100080900010012000200F8B506462D
:100E60002A4800F08DFA2A4B1B68002B43D0294FEB
:100E7000D7E90134013B04D524E05A1C04F168048D
:100E800020D0B4F90C50013B002DF6D1224BE36089
:100E900004F15800656600F06BFA1C4800F078FA1F
:100EA000C4E90155C4E9045508222560A561294615
:100EB00004F15C0000F042F9C4E90C55C4E9115595
:100EC0002046F8BD3D680DB12F46D1E74FF4D671ED
:100ED000304600F061FC044680B10423C0E90053B1
:100EE0000C302946A0604FF4D072254600F026F958
:100EF0003C602F46BCE7FFF739FFB8E703483C608A
:100F000000F046FA0C233360DAE700BF4C080020FB
:100F100028080020200100200100FFFF10B5044632
:100F20000A4800F02DFA636B23B9094B094A1B6884
:100F3000626323B1BDE81040044800F029BAFFF70E
:100F400015FFBDE81040014800F022BA4C0800200F
:100F500028080020F50C0008014800F011BA00BF75
:100F60004C080020014800F013BA00BF4C080020D4
:100F700008B5054800F004FABDE80840034A0449F2
:100F8000002000F019B800BF4C080020200100200C
:100F9000350D000808B5054A0549002000F00CF899
:100FA000BDE80840034800F0F3B900BF200100206D
:100FB000510D00084C0800202DE9F84307468846EB
:100FC00016464FF00009D6E90154013D10D4A3891B
:100FD000012B08D9B4F90E3001332146384602D02E
:100FE000C04749EA0009013D6B1C04F16804EED1D9
:100FF0003668002EE7D14846BDE8F88370B505464F
:1010000088B008460C46FFF7FBFC224E6A6B059041
:1010100001214318CDE9066104A802210494039339
:10102000AC68019002916AB3636EB4F90C20D907E1
:1010300001D496051FD5900405D442F4005223F440
:101040000053A2816366990420D401AA2146284650
:1010500000F0C0FF636EC8B90A25DA0702D4A3897D
:101060009B0502D5284608B070BDA06D00F090F930
:10107000284608B070BDA06D00F082F9B4F90C20CC
:10108000636ED8E72846FFF749FFCDE74FF0FF35FD
:10109000E3E700BF14350008024B01461868FFF76C
:1010A000ADBF00BF2C01002010B50C46B1F90E10E9
:1010B00000F0F4F8002803DB236D0344236510BD22
:1010C000A38923F48053A38110BD00BF0020704783
:1010D0002DE9F0410C46B1F90C101F46CB05054631
:1010E00016460BD421F48051A1813B46B4F90E1071
:1010F00032462846BDE8F04100F0E6B8B4F90E10DB
:101100000223002200F0B4F8B4F90C10EAE700BFA3
:1011100010B50C46B1F90E1000F0AAF8B4F90C3075
:10112000421C0EBF23F4805343F480532065A381F7
:1011300010BD00BFB1F90E1000F052B8830730B5F2
:1011400047D0541E002A3ED0CAB2034601E0013CFB
:1011500039D303F8012B9D07F9D1032C2CD9CDB23B
:1011600005EB05250F2C05EB054535D9A4F110023B
:1011700022F00F0C03F1100EE6444FEA121C1A463F
:10118000C2E90055C2E9025510327245F8D10CF19E
:10119000010214F00C0F03EB021204F00F0C13D039
:1011A000ACF1040323F003030433134442F8045B5B
:1011B0009342FBD10CF003042CB1C9B21C4403F8D8
:1011C000011BA342FBD130BD64461346002CF4D171
:1011D000F9E703461446C0E71A46A446E0E700BF15
:1011E00038B5074D0022044608462A6001F060FD2C
:1011F000431C00D038BD2B68002BFBD0236038BDCA
:101200002C080020194B1B6883422ED0416C70B50E
:10121000054681B100268C593CB1214624682846F8
:1012200000F0BEF9002CF8D1696C0436802EF2D1A2
:10123000284600F0B5F9A96B11B1284600F0B0F9C5
:101240002C6C34B121462468284600F0A9F9002C02
:10125000F8D1E96C11B1284600F0A2F96B6B1BB113
:101260002846BDE87040184770BD70472C0100202B
:1012700038B50C46084D8446114620461A460023D0
:101280002B60644601F084FC431C00D038BD2B6801
:10129000002BFBD0236038BD2C08002038B50C464D
:1012A000084D8446114620461A4600232B606446AA
:1012B00001F0CAFB431C00D038BD2B68002BFBD0CB
:1012C000236038BD2C08002038B50C46084D8446F4
:1012D000114620461A4600232B60644601F078FC34
:1012E000431C00D038BD2B68002BFBD0236038BDD9
:1012F0002C08002070B50F4B0F4DAB42A3EB050639
:1013000007D0B610002455F8043B01349847A64294
:10131000F9D802F069F8094D094B5E1BAB424FEA60
:10132000A60606D0002455F8043B01349847A6428F
:10133000F9D870BD000000000000000000000000AF
:101340000000000038B5074D074C2C1BA41005D039
:10135000013C55F8043D9847002CF9D1BDE83840D0
:1013600002F048B80000000000000000704700BF15
:10137000704700BF704700BF704700BF704700BF95
:10138000704700BF0120704701207047704700BFC1
:10139000704700BF2DE9F8431B4D06462868984664
:1013A0000F469146FFF7ECFF184B1C681CB32868EA
:1013B00065681F2D22DC4EB96B1C0235636044F852
:1013C0002570FFF7E5FF0020BDE8F88304EB8501F9
:1013D0000123C1F88890D4F88821AB401A43022E2B
:1013E000C4F88821C1F80881E6D1D4F88C211A43C9
:1013F000C4F88C21E0E7064C1C60D8E7FFF7C8FF73
:101400004FF0FF30E0E700BF50020020E00900206D
:1014100050080020024B13B10248FFF74BBC704745
:1014200000000000451300082DE9F04F2C4B2D4F14
:1014300083B082461868CDF804A08B46FFF7A0FF62
:101440003E684EB34FF000094FF001087468651E06
:1014500022D4013406EB8404BBF1000F23D173685E
:101460002268013BAB420CBF7560C4F8009072B1BA
:10147000D6F88811D6F804A008FA05F30B421CD15F
:10148000904773683A68534523D1B24221D1013D58
:101490006B1CA4F10404DFD1114B186803B0BDE844
:1014A000F04FFFF775BFD4F800315B45D7D0013D51
:1014B0006A1CA4F10404F6D1EEE7D6F88C01D4F846
:1014C0008010034209D10198904773683A685345E8
:1014D000DBD0002AE0D01646B8E708469047D0E7B0
:1014E00050020020E00900202DE9F84306460820BC
:1014F000894600F0DFFFDFF89C800546304600F0AB
:10150000FDFBD8F808305F6827F00307A7F1110446
:10151000A4EB09042C44B4FBF5F4013C05FB04F4F2
:10152000A54208DC0021304600F0B2FFD8F80830B0
:101530003B44984205D0304600F0E6FB0020BDE871
:10154000F8836142304600F0A3FF01300FD0124A09
:10155000D8F808303F1B47F001075F60136830463A
:101560001B1B136000F0D0FB0120BDE8F8830021B5
:10157000304600F08DFFD8F80820831A0F2BDADDF3
:1015800043F001035360054B03491B68C01A086010
:10159000D1E700BF60020020E409002054020020CF
:1015A00000297CD0F8B50C46064600F0A7FB54F89D
:1015B000043C764FA4F1080523F001016818D7F820
:1015C00008C04268844522F0030200F08380DB07F4
:1015D000426000EB020C33D454F8084CDCF80430C1
:1015E0002D1B2144AC6807F1080C644503F001038E
:1015F00064D0D5F80CE0C4F80CE0CEF80840002B1D
:1016000000F0818041F001036B600160B1F5007F63
:1016100022D27868CB080122490901338A4002436B
:1016200057F833107A6007EBC302083AC5E9021293
:1016300047F83350CD603046BDE8F84000F064BB59
:10164000DCF80430DB072BD541F00103B1F5007F56
:1016500044F8043C0160DCD3B1F5206F4FEA51231C
:1016600053D28B0903F1390003F13802C300F81893
:10167000FB580838984203D161E09B68984204D037
:101680005A6822F003028A42F7D8D868C5E90230C6
:101690008560DD603046BDE8F84000F035BB70473E
:1016A000114407F1080C836863453FD0C268DA60D3
:1016B000936041F001036B606950A7E7002B5FD195
:1016C0000A44D0E90213CB60996042F001036B60D9
:1016D000AA50B0E70A44D90707D454F8083CED1AD9
:1016E0001A44D5E90213CB60996042F001036B60A4
:1016F000274BBD601B6893429DD8264B3046196826
:10170000FFF7F2FE97E71144CDE7142B08D9542BCD
:101710001DD80B0B03F16F0003F16E02C300A6E7A7
:1017200003F15C0003F15B02C300A0E741F0010399
:10173000C7E90455C5E902CC6B6069507BE779685D
:101740009210012404FA02F20A437A609EE7B3F58C
:10175000AA7F06D8CB0B03F1780003F17702C30010
:1017600085E740F25452934206D88B0C03F17D007A
:1017700003F17C02C3007AE74FF47E737E2276E7A2
:1017800041F001036B60016055E700BF600200207B
:1017900058020020140A00202DE9F04F01F10B053A
:1017A000162D83B0064623D8102900F2AF8000F032
:1017B000A5FA102518230220B74F3B44A3F10802D5
:1017C0005C68944200F01F816368E268A16823F0BE
:1017D0000303CA602344304691605A6842F0010214
:1017E0005A6000F091FA0834204603B0BDE8F08F4B
:1017F00035F0070500F18A80A94200F2878000F0E9
:101800007DFAB5F5FC7FC0F06E816B0A00F0828036
:10181000042B00F21E81AB0903F1390003F1380EED
:10182000C3009D4F3B44A3F1080C5C68A44507D15D
:101830000DE0002AE16880F2E0808C4507D00C467C
:10184000636823F003035A1B0F2AF2DD7046DFF8AA
:101850004C823C69444500F0BD80636823F0030C72
:10186000ACEB05030F2B00F34281002BC7E9048882
:1018700080F22D81BCF5007FD7F804E080F0C980AC
:101880004FEADC0101314FEA5C1C012303FA0CF33F
:1018900057F83120A2604EEA030E07EBC103083B64
:1018A000E360C7F804E047F83140D46083104FF09C
:1018B000010C0CFA03FCF44532D81CEA0E0F08D1D7
:1018C00020F003004FEA4C0C1CEA0E0F00F104005C
:1018D000F8D007EBC00AD6468146DEF80C300BE0A4
:1018E000596821F003014A1B0F2A1C46DB6800F3EC
:1018F000BC80002A80F2DE809E45F1D109F1010909
:1019000019F0030F0EF1080EE7D119E10C23336033
:10191000002469E74FF4007340204FF03F0E80E74A
:10192000BC68636823F00309A94503D3A9EB050349
:101930000F2B52DC5A4B1B68082003F1100804EBF4
:101940000903009300F0B6FD564A13680133A8441A
:10195000834605D008F1FF388044434203EA080873
:101960004146304600F094FDB0F1FF3F4D4A8246BB
:1019700000F0D88004EB0903834200F2D1804A4B87
:10198000186840440BF1FF311860844640F0FB803A
:101990001AEA010F40F0F780D7F808A0C84448F0D1
:1019A0000102CAF80420414B1968814238BF18600F
:1019B0003F4B1968814238BF1860544622F0030833
:1019C000A845A8EB050301D30F2B06DC304600F039
:1019D0009BF99DE7D7F804E068E7621943F001033B
:1019E00045F0010565603046BA60536000F08CF93F
:1019F0000834204603B0BDE8F08FA2682344D160CC
:101A000030468A60E9E6DC68A3427FF4DDAE02304E
:101A10001DE7BCF5206F4FEA5C227AD3142A00F24E
:101A2000128102F15C03DB005B32F918FB580839C4
:101A3000994203D1ECE09B68994204D05A6822F0A5
:101A400003026245F7D8D968C4E902318C60DC60D2
:101A50002CE7142B69D9542B00F2FE802B0B03F1D9
:101A60006F0003F16E0EC300DBE6D4F808C0304609
:101A7000661945F001056560CCF80C30C3F808C064
:101A800042F00103C7E90466C6E902887360625048
:101A900000F03AF90834A7E660020020680200204E
:101AA000140A002054020020E4090020100A00203B
:101AB0000C0A0020214430464A6842F001024A6084
:101AC00054F8082FD3609A6000F01EF98CE6A44405
:101AD0003046DCF8043043F00103CCF8043000F069
:101AE00013F9083480E6E80805F1080364E6621992
:101AF00043F0010145F0010565603046C7E9042265
:101B0000C2E90288516044F80C3000F0FDF8083456
:101B10006AE64FEA9C1202F13903DB00383284E7AF
:101B2000BC4228D0BC68626848E703F15C0003F15E
:101B30005B0EC30075E65AF80839534540F0DA8069
:101B400010F0030F00F1FF30F5D17B6823EA0C039E
:101B50007B604FEA4C0C9C453FF6E2AEBCF1000FB7
:101B600004D1DDE64FEA4C0C09F104091CEA030F2D
:101B7000F8D04846ADE6604B186808EB000C0BF156
:101B8000FF31C3F800C0106801306FD004EB0902C8
:101B9000AAEB020262441A601AF00702CDE90023A0
:101BA00040D0C2F108029244D04408EA01005A44ED
:101BB000121A02EA010B5946304600F069FC421C39
:101BC000019B6FD0A0EB0A0000EB0B081868C7F868
:101BD00008A048F001025844BC42CAF8042018602A
:101BE0003FF4E1AEB9F10F0F43D96168A9F10C02DE
:101BF00022F0070201F00101114361604FF0050C72
:101C0000A1180F2AC1E901CC54D8DAF80420CAE699
:101C100092104FF0010C0CFA02F24EEA020EC7F8D5
:101C200004E011E70AEB08020A40ABEB020202EA09
:101C3000010B5946304600F02BFC431C019BC1D1DF
:101C4000DDF800B0C2E7542A17D84FEA1C3202F17F
:101C50006F03DB006E32E8E6B3F5AA7F17D8EB0B13
:101C600003F1780003F1770EC300DAE5C2F800A0B3
:101C700092E70123CAF80430A8E6B2F5AA7F24D877
:101C80004FEADC3202F17803DB007732CDE640F236
:101C90005452934224D8AB0C03F17D0003F17C0E27
:101CA000C300BEE5009A083A9044A8EB0A084FF03A
:101CB000000B8BE7304604F108010093FFF770FC3E
:101CC000009BD7F808A018689FE740F254539A4247
:101CD0000CD84FEA9C4202F17D03DB007C32A4E683
:101CE0004FF47E737F204FF07E0E9AE54FF47E73A3
:101CF0007E229AE67B682CE7E40900200148FFF782
:101D00003FBB00BF400800200148FFF741BB00BFB8
:101D10004008002070B500293FD006460C4610B19F
:101D2000436B002B3CD0636EB4F90C20DD0732D43A
:101D3000900538D52146304600F054F8E36A054650
:101D400033B1E169304698470028B8BF4FF0FF35FE
:101D5000A3891A0639D4216B41B104F14003994299
:101D600002D03046FFF71CFC00232363616C21B1D5
:101D70003046FFF715FC00236364FFF7EDF8636E50
:101D80000022DB07A2811CD5A06DFFF7F5FAFFF753
:101D9000E9F8284670BD002ACCD10025284670BD40
:101DA000FFF7BCF8BFE7A06DFFF7EAFAB4F90C3013
:101DB000002BBFD1636ED907EFD4A06DFFF7E8FA0F
:101DC000EBE7A06DFFF7E4FADEE721693046FFF7A5
:101DD000E7FBC0E7024B01461868FFF79BBF00BF57
:101DE0002C010020B1F90C20F8B516070C46074667
:101DF00049D4496842F400630029A3815FDDA56AE4
:101E0000002D3ED0002112F480523E683960E16915
:101E100061D101233846A847451C02466BD0B4F96E
:101E20000C30A56AE169580705D56368D21A236B9F
:101E30000BB1E36BD21A00233846A847411C4CD1A2
:101E40003968B4F90C301D293FD82F4ACA40D2074F
:101E50003BD52269226023F40062A281DD044FF0A9
:101E60000002626001D5002943D0216B3E6041B180
:101E700004F14003994202D03846FFF791FB00235A
:101E800023630020F8BD0E69002EFAD00D680E60A5
:101E900092070CBF4B690023AD1B8B600CE0D4F89C
:101EA00024C0E1692B4632463846E047B0F1000CC9
:101EB000A5EB0C05664406DD002DF0DCE1E7E16BE7
:101EC00000299CDCDDE7B4F90C3043F04003A3812A
:101ED0004FF0FF30F8BD226DA5E7B4F90C30226950
:101EE000226023F40062A281DB044FF000026260F2
:101EF000BBD52065B9E73B68002B90D01D2B01D0E6
:101F0000162BE0D13E60BCE70100402038B50C46FE
:101F1000054608B1436B03B3B4F90C0088B1636E96
:101F2000DB0701D481050FD528462146FFF75AFF6C
:101F3000636EDA07054602D4A3899B0508D52846B7
:101F400038BD0546284638BDA06DFFF719FAEBE706
:101F5000A06DFFF71DFA284638BDFEF7DFFFDBE76F
:101F600050B338B5174B1D6804460DB16B6BBBB150
:101F7000B4F90C0088B1636EDB0701D4810513D579
:101F800028462146FFF72EFF636EDA07054602D486
:101F9000A3899B050CD5284638BD0546284638BD83
:101FA0002846FEF7BBFFE3E7A06DFFF7E9F9E7E797
:101FB000A06DFFF7EDF9EEE7034A04490448FEF788
:101FC000FBBF00BF2C010020200100200D1F0008D6
:101FD000300100209368002B00F0F6802DE9F04FCF
:101FE000B1F90CC01CF0080F83B0904681460C4636
:101FF00031D00B697BB31CF00207D8F8006038D0F1
:102000000027D4F824B0E169DFF8BCA23D4655456D
:102010002B463A4628BF53464846C5B1D847002804
:1020200040F3C880D8F808301B1A07442D1AC8F8A6
:102030000830002B00F0B48055452B46D4F824B06E
:10204000E16928BF53463A464846002DE6D1D6E915
:1020500000750836DBE72146484600F037F90028CE
:1020600040F0AD80B4F90CC0D8F800601CF0020755
:10207000C6D11CF0010A63D12368A16857461846EF
:102080008B46002F58D01CF4007F00F0B180B9427D
:102090000A4600F2DD801CF4906F2FD0216962693E
:1020A0005D1A02EB420202EBD2726B1C52103B44EF
:1020B000934292BF93469B461A461CF4806F00F0F1
:1020C000E68011464846FFF767FB002800F0F580E0
:1020D0002A4621690190FEF753FDA289019B22F453
:1020E000906242F08002A2815819ABEB0505C4F85A
:1020F00014B02361A5602060BB463A465146019268
:1021000000F046F9A1682368019AA1EB0B011A447B
:102110003D46A16022600027D8F808305B1BAA4426
:10212000C8F80830002B3BD02368A168B4F90CC074
:1021300018468B46002FA6D1D6E900A708369EE7A1
:102140003846BB463D46002D40D0002845D03A4693
:10215000D4E904C32068A168AA4228BF2A46604582
:1021600004D901EB030A524500F38280934272DCEA
:10217000E169D4F824C05A464846E047B0F1000A65
:1021800018DDB7EB0A070FD00120D8F80830A3EB11
:102190000A03D344A5EB0A05C8F80830002BD2D1B6
:1021A000002003B0BDE8F08F21464846FFF7AEFEA1
:1021B0000028EAD0B4F90C3043F04003A3814FF07B
:1021C000FF3003B0BDE8F08F0020704775683346DC
:1021D0000836002DFAD0D3F800B02A460A21584616
:1021E000FEF77EFC002865D00130A0EB0B07AEE7C0
:1021F00022699A4214D36269BA4211D86FF000433F
:10220000BB4228BF3B46656A93FBF2F3E16902FBE0
:1022100003F348465246A847051ECBDD7F1B7BE7EC
:10222000B94228BF39460D4618460A46514600F0C5
:10223000AFF8A1682368491B2B44A16023600029E3
:10224000ECD121464846FFF761FE0028E6D0B1E711
:10225000BB463A4652E75946019200F099F8019A76
:10226000A3689B1AA360236813442360924688E7FF
:102270005946524600F08CF82368534423602146A7
:102280004846FFF743FE00283FF47BAF92E74846FD
:1022900000F01EF9034600287FF426AF2169484666
:1022A000FFF77EF9B4F90C300C22C9F8002023F0B6
:1022B000800381E76A1C17464AE70C22B4F90C3008
:1022C000C9F8002078E700BF00FCFF7F38B52F4B2E
:1022D0001B6805460C4613B15A6B002A4BD0B4F963
:1022E0000C3018071CD5226922B313F0010107D066
:1022F000616900204942A060A1613AB1002038BD67
:10230000980758BF6169A160002AF7D1190658BF24
:102310001046F4D543F04003A3814FF0FF3038BDA1
:10232000D9062CD55A0712D4226943F00803A38199
:10233000002ADAD103F42071B1F5007FD5D021460F
:10234000284600F067FAB4F90C302269CDE7216B1A
:1023500051B104F14002914204D02846FFF720F920
:10236000B4F90C300022226322690021C4E9002163
:1023700023F02403D9E71846FEF7D0FDAFE7092282
:1023800043F040032A60A381C7E700BF2C0100206F
:1023900088420ED98B1883420BD900EB020C002A1D
:1023A0006ED0624613F801CD02F801CD9942F9D101
:1023B00070470F2A0FD8034602F1FF3C002A5FD076
:1023C0000CF1010C013B8C4411F8012B03F8012F97
:1023D0006145F9D1704740EA01039B0751D1A2F151
:1023E000100370B501F1200C23F00F0501F1100E60
:1023F00000F11004AC441B095EF8105C44F8105C5A
:102400005EF80C5C44F80C5C5EF8085C44F8085C10
:102410005EF8045C44F8045C0EF1100EE64504F12D
:102420001004E9D1013312F00C0F01EB031102F09B
:102430000F0400EB031328D0043C24F003064FEAFA
:10244000940C1E441C1F8E465EF8045B44F8045F27
:10245000B442F9D10CF1010402F0030203EB84034E
:1024600001EB840102F1FF3C4AB10CF1010C013B8C
:102470008C4411F8012B03F8012F6145F9D170BD8F
:10248000704702F1FF3C03469AE72246EAE700BFA5
:1024900038B5074D0022044608462A6000F054FC77
:1024A000431C00D038BD2B68002BFBD0236038BD07
:1024B0002C080020082802D14FF48050704708B53E
:1024C00000F06EFA162303604FF0FF3008BD00BF26
:1024D0002DE9F84F1646002900F096800C468046FC
:1024E00006F10B05FFF70AFC54F8041C162DA4F1A5
:1024F000080921F0030758D81025AE4258D8AF423A
:1025000060DABE4B9A6809EB070C6245DCF8040000
:1025100000F0908020F0010363445B68DB0768D41F
:1025200020F003003B189D4247DDCB0712D454F83E
:10253000083CA9EB030BDBF8043023F00302104442
:1025400000EB070A554540F3F68007EB020A5545B4
:1025500040F3CC8031464046FFF71EF9064600287E
:1025600000F0208154F8043C23F001034B44A0F117
:102570000802934200F0B4803A1F242A00F2D78068
:10258000132A00F2A280034622461168196051689E
:10259000596092689A6021464046FFF701F840462C
:1025A000FFF7B2FB3046BDE8F88F35F00705A4D53C
:1025B0000C23C8F80030002618E01F46DCE902238F
:1025C000D3609A60D9F804307A1B0F2A03F0010314
:1025D00009EB07001DD83B43C9F80430436843F0BA
:1025E000010343604046FFF78FFB26463046BDE8B7
:1025F000F88FC907AED454F8083CA9EB030BDBF8FD
:10260000043023F00302A0E7BDE8F84F1146FFF7BE
:10261000C3B809EB05012B4342F00102C9F80430AD
:102620004A60436843F00103436008314046FEF7C7
:10263000B7FFD7E720F00300C21905F1100C62457F
:1026400080F29180CA0785D454F8082CA9EB020BBC
:10265000DBF8042022F00302104400EB070AD44503
:102660003FF773AF5E46DBF80C1056F8080F3A1FC1
:10267000242AC160886000F2AE80132A40F2A9804B
:102680002168CBF808106168CBF80C101B2A00F207
:10269000A88008340BF11002216811606168516054
:1026A000A16891600BEB0501AAEB050242F0010263
:1026B00099604A60DBF8043003F001032B43404685
:1026C000CBF80430FFF720FB90E7236803606368D2
:1026D00043601B2A3CD804F1080200F1080354E7C8
:1026E00050F8043C23F003031F446BE73A1F5E4697
:1026F000DBF80C3056F8081F242ACB60996022D8EA
:10270000132A1ED92368CBF808306368CBF80C3045
:102710001B2A3BD808340BF1100322681A60626848
:102720005A60A2689A6034465746D9464AE721461D
:10273000FFF72EFE2FE7DCE902133A1FCB6099600A
:10274000D5E73346E9E721463046FFF721FEEAE7C1
:10275000A3688360E368C360242A27D004F11002D1
:1027600000F1100311E709EB05019960531B43F0D9
:1027700001034B6054F8043C03F001032B43404633
:1027800044F8043CFFF7C0FA26462FE7A368CBF8CD
:102790001030E368CBF81430242A10D010340BF139
:1027A0001803BAE74046FFF7AFFA04E7236903616D
:1027B0006169416104F1180200F11803E5E623693B
:1027C000CBF818306369CBF81C3018340BF12003B8
:1027D000A3E7324660E721463046FFF7D9FD074BB5
:1027E00060E7A168CBF81010E168CBF81410242A38
:1027F00006D010340BF118024EE700BF6002002033
:102800002269CBF818206269CBF81C2018340BF130
:10281000200241E72DE9F041B1F90C300C4699074F
:1028200096B008D504F143030122C4E904322360C1
:1028300016B0BDE8F081B4F90E100029064626DB7B
:102840006A4600F085F800281FDB019D05F47045FD
:10285000A5F50055B5FA85F54FF480686D094FF47C
:10286000006741463046FEF797FFE8B1B4F90C30F7
:10287000C4F8148043F0800320602061A3813DBB35
:102880003B43A38116B0BDE8F081B4F90C3013F0DE
:10289000800519D04FF040080025414630462F46AC
:1028A000FEF77AFF0028E1D1B4F90C309A05BFD4C5
:1028B00023F0030304F1430243F002030121C4E9BE
:1028C0000421A3812260B3E74FF480682F46C8E754
:1028D000B4F90E10304600F051F810B9B4F90C30CC
:1028E000CEE7A38923F0030343F001031BB2C7E73C
:1028F00070B50C46B1F90E10002996B015461E466B
:1029000014DB6A4600F024F800280FDB019901F47B
:102910007041A1F50051B1FA81F14FF4806349098A
:102920004FF4006031602B6016B070BDA18911F0CA
:10293000800106D000214023084631602B6016B08C
:1029400070BD4FF48063084631602B6016B070BDD7
:1029500070B50C46084D03460026204611461C461D
:102960002E6000F053FA431C00D070BD2B68002B82
:10297000FBD0236070BD00BF2C08002038B5074D88
:102980000022044608462A6000F0A6FC431C00D042
:1029900038BD2B68002BFBD0236038BD2C080020ED
:1029A000014B1868704700BF2C010020014608B594
:1029B000024A4FF0FF3000F003F800BF260002008B
:1029C00000B583B0CDE9002100F03CFB00280CBF2E
:1029D0001824202400F036FB20B16D4620462946FD
:1029E000ABBE0446009D20462946ABBE044600BF50
:1029F000062908B502D0034AFFF7E2FF024AFFF7B3
:102A0000DFFF00BF2600020023000200F0B585B002
:102A1000CDE901010392062401AD20462946ABBE53
:102A20000446631C02D0204605B0F0BDFFF7B8FF96
:102A300013260546002730463946ABBE06462046DB
:102A40002E6005B0F0BD00BF2DE9F0411F4B1B68A3
:102A500084B005460F4614460BB15A6BE2B1132DF4
:102A60001FD81B4E56F835305A1C1AD0CDE9013705
:102A7000039406270DF1040838464146ABBE0746CD
:102A80007B1C13D006EBC503E41B5A682046224486
:102A90005A6004B0BDE8F0811846FEF73FFA132DE6
:102AA000DFD9FFF77DFF0923036009E0FFF778FF17
:102AB00013250446002628463146ABBE0546256050
:102AC0004FF0FF3004B0BDE8F08100BF2C010020C2
:102AD000280A00202DE9F0412B4B1B6882B00546E7
:102AE0000C46164613B15A6B002A43D0132D46D814
:102AF000264F57F83530591C41D0022E28D8012EC8
:102B000021D0022E12D0E846CDE900340A26304604
:102B10004146ABBE0646731C1FD0002E27DB07EBD9
:102B2000C5077C60204602B0BDE8F08100930C260A
:102B3000E84630464146ABBE0646721C0DD057F8FB
:102B400035303444E0E707EBC5025268A418DAD503
:102B5000FFF726FF1623036009E0FFF721FF132587
:102B60000446002628463146ABBE054625604FF098
:102B7000FF34D7E71846FEF7D1F9132DB8D9FFF780
:102B80000FFF09230360F2E72C010020280A002030
:102B9000FFF7A0BFF0B585B0CDE901010392052490
:102BA00001AD20462946ABBE0446631C02D0204638
:102BB00005B0F0BDFFF7F4FE1326054600273046AA
:102BC0003946ABBE064620462E6005B0F0BD00BFBC
:102BD0002DE9F041264B1B6884B006460C4615468D
:102BE0000BB15A6BFAB1132E22D8224F57F8363058
:102BF0005A1C1DD0CDE90134039505240DF10408BC
:102C000020464146ABBE0446631C16D0002C1EDB9A
:102C100007EBC603281B5A68AC4202445A6019D01D
:102C200004B0BDE8F0811846FEF778F9132EDCD920
:102C3000FFF7B6FE0923036009E0FFF7B1FE132595
:102C40000446002628463146ABBE054625604FF0B7
:102C5000FF30E5E7FFF7A4FE1326054600243046C3
:102C60002146ABBE064620462E6004B0BDE8F0818A
:102C70002C010020280A0020F0B583B00224019026
:102C800001AD20462946ABBE0446631C02D0204657
:102C900003B0F0BDFFF784FE13260546002730463B
:102CA0003946ABBE064620462E6003B0F0BD00BFDD
:102CB000F0B5224B1B6883B005460BB15A6B2AB3A3
:102CC000132D28D81E4E56F835305A1C23D06A1EB4
:102CD000012A03D8B1683269914210D001930224CD
:102CE00001AF20463946ABBE0446631C204617D0D0
:102CF0001CB94FF0FF3346F8353003B0F0BD4FF04C
:102D0000FF33002046F8353003B0F0BD1846FEF71B
:102D100005F9132DD6D9FFF743FE0923036009E017
:102D2000FFF73EFE13250446002628463146ABBE7B
:102D3000054625604FF0FF30DFE700BF2C01002083
:102D4000280A0020012070470D4A0346106810B57C
:102D500098B1034469468B4208D80A490A4C09686D
:102D6000A14201D08B4201D8136010BDFFF718FEBD
:102D70000C2303604FF0FF3010BD04481060E8E7FB
:102D8000180A002068060020ADDEFECAC80A00202E
:102D90001C4B1B6870B505460C460BB15A6BCAB18B
:102DA000132D1CD8184B53F83520013217D0626808
:102DB0004FF4806142F400526260A1640C2603EB80
:102DC000C50530462946ABBE05466B1C0CD02561B7
:102DD000002070BD1846FEF7A1F8132DE2D9FFF7C9
:102DE000DFFD0923036009E0FFF7DAFD1325044640
:102DF000002628463146ABBE054625604FF0FF3021
:102E000070BD00BF2C010020280A00200B4610B521
:102E10000021044658221846FEF790F90146204644
:102E2000BDE81040FFF7B4BF38B50C460546582240
:102E300000212046FEF782F92846002100F012F812
:102E4000431C05460CD0636843F40143214663608C
:102E5000FFF79EFF04462846FFF72AFF204638BDAD
:102E60000446FBE72DE9F0472F4D96B081460F460B
:102E7000002402E00134142C51D055F834300133D1
:102E80004FEAC406F6D107F42063B3F5206FEA4693
:102E900038D0C7F30048BA0740F2016348BF48F092
:102EA00002081F4218BF48F004083B0748BF28F03B
:102EB0000408484648BF48F00808CDF80090FDF7E0
:102EC0009FFD0127CDE9018038465146ABBE07463C
:102ED000002F08DB2E44002345F834707360204631
:102EE00016B0BDE8F087FFF75BFD1325044600260A
:102EF00028463146ABBE054625603C46204616B006
:102F0000BDE8F08751464846FFF78EFF0130C0D03C
:102F1000FFF746FD112303604FF0FF34DFE7FFF7B3
:102F20003FFD18230360F7E7280A00200EB400B520
:102F30000199FFF797FF5DF804EB03B0704700BFFE
:102F40002DE9F043074683B03B48884600211646EA
:102F5000FFF788FF0021044632463846FEF7EEF8B8
:102F6000611C58D0354B186810B1436B002B55D0FD
:102F7000132C40D8324B53F8342001323BD003EBB2
:102F8000C4090C2528464946ABBE05466A1C35D007
:102F9000032D3DDD033DB5423ADD04220DEB020178
:102FA0002046FFF751FD032832DD9DF80430532BF6
:102FB0002ED19DF80530482B2AD19DF80630462B9E
:102FC00026D19DF80730422B22D1012241462046CE
:102FD000FFF780FD00281BDB324639462046FFF70D
:102FE00033FD05462046FFF763FE6B1C19D02846CB
:102FF00003B0BDE8F0834FF00009C2E7FFF7D0FC53
:1030000013260546002730463946ABBE06462E60DD
:103010002046FFF74DFE4FF0FF35E8E7FDF77EFF56
:10302000A6E7FFF7BDFC13260446002730463946C5
:10303000ABBE06462660DAE7183500082C010020F2
:10304000280A002030B50F4C2068002883B001DB2F
:1030500003B030BD0C4D0021012201A821602A607F
:10306000FFF76EFF002809DD9DF8043003F0010032
:1030700003F0020320602B6003B030BD206803B072
:1030800030BD00BF700600206C06002030B50F4C2C
:103090002068002883B001DB03B030BD0C4D002157
:1030A000012201A829602260FFF74AFF002809DDFC
:1030B0009DF8040000F0010300F002002B60206086
:1030C00003B030BD206803B030BD00BF6C060020E7
:1030D000700600202DE9F04F85B04D4F0197032376
:1030E000002403934FF0010801AE0294404631469C
:1030F000ABBE8046474D2346474CC5F800804FF095
:10310000FF3244F833200133142BFAD1DFF80C815D
:10311000D8F80030002B53DB4BB9414A116801311C
:1031200066D02A68C4E9002305B0BDE8F08F4FF0EF
:10313000030B042301974FF00109CDF80CB0029363
:1031400048463146ABBE82460197364FCDF80CB0AB
:103150000823C7F800A0029348463146ABBE064696
:10316000DFF8BC90D8F80030C9F80060013604BF21
:103170003A68C9F8002000212A6822608B42616009
:1031800012DA294D01226846C8F800202960FFF7AD
:10319000D7FE002838DD9DF8003003F0010203F06F
:1031A00002032A60C8F800303BB13968D9F8002022
:1031B0000023C4E90213C4E9042305B0BDE8F08F7D
:1031C000DFF86490002101226846C8F80020C9F8A1
:1031D0000010FFF7B5FE002813DD9DF8003003F066
:1031E000010203F00203C9F80020C8F8003093E799
:1031F0000C48296800681060C4E9001305B0BDE8F8
:10320000F08FD8F8003087E7D8F80030CCE700BF5F
:1032100030350008240A0020280A00206C0600200F
:103220001C0A0020200A00207006002008B5FFF7C5
:10323000B7FB582303604FF0FF3008BDF0B583B0F3
:103240000E240090FDF7DCFB01906D4620462946D8
:10325000ABBE0446631C18BF002402D0204603B056
:10326000F0BDFFF79DFB1326054600273046394683
:10327000ABBE064620462E6003B0F0BDF0B50D464D
:1032800050B104461126002730463946ABBE0646EB
:10329000F317C4E90063A76015B10023C5E9003343
:1032A0000020F0BD30B51024002520462946ABBED5
:1032B0000446204630BD00BF70B5044610250026E8
:1032C00028463146ABBE05461CB1C4E90056C4E9E8
:1032D0000266284670BD00BF164B1B6870B50546D8
:1032E0000BB15A6BE2B1132D1FD8134B53F8352095
:1032F00001321AD0092403EBC50520462946ABBE8E
:103300000446012C20460AD0FFF74AFB1325044649
:10331000002628463146ABBE05462560002070BD1C
:103320001846FDF7FBFD132DDFD9FFF739FB092305
:103330000360F3E72C010020280A0020F0B583B0D9
:10334000C0B10090FDF75CFB122401906D46204651
:103350002946ABBE0446631C25460FD0FF2C06D879
:103360002CB16D00C5F3072301D0A342F9D1284643
:1033700003B0F0BD0125284603B0F0BDFFF710FBF8
:1033800013260446002730463946ABBE0646266063
:10339000EDE700BFF0B585B00C460090FDF730FBBF
:1033A00003462046CDE90134FDF72AFB0F240390A4
:1033B0006D4620462946ABBE0446631C06D0003C41
:1033C00018BF01246442204605B0F0BDFFF7E8FABB
:1033D00013260546002730463946ABBE0646204632
:1033E0002E6005B0F0BD00BFF8B500BFF8BC08BC4A
:1033F0009E467047F8B500BFF8BC08BC9E467047B3
:103400003E410C41114127413641034106411541DE
:103410000F410E41264113412941024119410A4100
:103420000B41000064000000640000006400000024
:10343000496D706C656D656E746174696F6E206F37
:10344000662073696D706C65207461736B207363A3
:10345000686564756C6572005461736B31206973C3
:1034600020657865637574696E6700005461736BDD
:103470003220697320657865637574696E67000032
:103480005461736B33206973206578656375746963
:103490006E6700005461736B342069732065786532
:1034A000637574696E670000457863657074696F51
:1034B0006E203A20486172646661756C7400000089
:1034C000457863657074696F6E203A204D656D4D67
:1034D000616E616765000000457863657074696FAF
:1034E0006E203A204275734661756C7400000000CE
:1034F0003E410C41114127413641034106411541EE
:103500000F410E41264113412941024119410A410F
:103510000B4100000A0000003A73656D69686F7323
:1035200074696E672D66656174757265730000005D
:043530003A74740075
:103534001000000000000000017A5200027C0E011D
:103544001B0C0D001C00000018000000B0D4FFFF8D
:10355400D800000000410E088501840202490A4A8D
:10356400C5C4410B380000003800000070D5FFFFCF
:103574009E00000000510E1084048503860287011A
:103584005BC7C6C5C40E004C0A420B0A420B0E10A0
:10359400840485038602870151C7C6C5C40E000092
:1035A4001400000074000000D4D5FFFF34010000B3
:0C35B4000002710A430B00000000000040
:0835C00074CCFF7F0100000044
:1035C80000000000000000000000000000000000F3
:1035D80000000000000000000000000000000000E3
:1035E80000000000000000000000000000000000D3
:1035F80000000000000000000000000000000000C3
:1036080000000000000000000000000000000000B2
:1036180000000000000000000000000000000000A2
:103628000000000000000000000000000000000092
:103638000000000000000000000000000000000082
:103648000000000000000000000000000000000072
:103658000000000000000000000000000000000062
:103668000000000000000000000000000000000052
:103678000000000000000000000000000000000042
:103688000000000000000000000000000000000032
:103698000000000000000000000000000000000022
:1036A8000000000000000000000000000000000012
:1036B8000000000000000000000000000000000002
:1036C80000000000000000000000000000000000F2
:1036D8000000000014000020FF00000001000000AE
:1036E8000000000003000000F00600203001002068
:1036F80000000000F006002058070020C007002046
:1037080000000000000000000000000000000000B1
:1037180000000000000000000000000000000000A1
:103728000000000000000000000000000000000091
:103738000000000000000000000000000000000081
:103748000000000000000000000000000000000071
:103758000000000000000000000000000000000061
:103768000000000000000000000000000000000051
:103778000000000000000000000000000000000041
:103788000000000000000000010000000000000030
:103798000E33CDAB34126DE6ECDE05000B000000F5
:1037A8000000000000000000000000000000000011
:1037B8000000000000000000000000000000000001
:1037C80000000000000000000000000000000000F1
:1037D80000000000000000000000000000000000E1
:1037E80000000000000000000000000000000000D1
:1037F80000000000000000000000000000000000C1
:1038080000000000000000000000000000000000B0
:1038180048080020FFFFFFFF000002000000000032
:10382800000000000000000060020020600200208C
:103838006802002068020020700200207002002048
:1038480078020020780200208002002080020020F8
:1038580088020020880200209002002090020020A8
:103868009802002098020020A0020020A002002058
:10387800A8020020A8020020B0020020B002002008
:10388800B8020020B8020020C0020020C0020020B8
:10389800C8020020C8020020D0020020D002002068
:1038A800D8020020D8020020E0020020E002002018
:1038B800E8020020E8020020F0020020F0020020C8
:1038C800F8020020F8020020000300200003002076
:1038D8000803002008030020100300201003002024
:1038E80018030020180300202003002020030020D4
:1038F8002803002028030020300300203003002084
:103908003803002038030020400300204003002033
:1039180048030020480300205003002050030020E3
:103928005803002058030020600300206003002093
:103938006803002068030020700300207003002043
:1039480078030020780300208003002080030020F3
:1039580088030020880300209003002090030020A3
:103968009803002098030020A0030020A003002053
:10397800A8030020A8030020B0030020B003002003
:10398800B8030020B8030020C0030020C0030020B3
:10399800C8030020C8030020D0030020D003002063
:1039A800D8030020D8030020E0030020E003002013
:1039B800E8030020E8030020F0030020F0030020C3
:1039C800F8030020F8030020000400200004002071
:1039D800080400200804002010040020100400201F
:1039E80018040020180400202004002020040020CF
:1039F800280400202804002030040020300400207F
:103A0800380400203804002040040020400400202E
:103A180048040020480400205004002050040020DE
:103A2800580400205804002060040020600400208E
:103A3800680400206804002070040020700400203E
:103A480078040020780400208004002080040020EE
:103A5800880400208804002090040020900400209E
:103A68009804002098040020A0040020A00400204E
:103A7800A8040020A8040020B0040020B0040020FE
:103A8800B8040020B8040020C0040020C0040020AE
:103A9800C8040020C8040020D0040020D00400205E
:103AA800D8040020D8040020E0040020E00400200E
:103AB800E8040020E8040020F0040020F0040020BE
:103AC800F8040020F804002000050020000500206C
:103AD800080500200805002010050020100500201A
:103AE80018050020180500202005002020050020CA
:103AF800280500202805002030050020300500207A
:103B08003805002038050020400500204005002029
:103B180048050020480500205005002050050020D9
:103B28005805002058050020600500206005002089
:103B38006805002068050020700500207005002039
:103B480078050020780500208005002080050020E9
:103B58008805002088050020900500209005002099
:103B68009805002098050020A0050020A005002049
:103B7800A8050020A8050020B0050020B0050020F9
:103B8800B8050020B8050020C0050020C0050020A9
:103B9800C8050020C8050020D0050020D005002059
:103BA800D8050020D8050020E0050020E005002009
:103BB800E8050020E8050020F0050020F0050020B9
:103BC800F8050020F8050020000600200006002067
:103BD8000806002008060020100600201006002015
:103BE80018060020180600202006002020060020C5
:103BF8002806002028060020300600203006002075
:103C08003806002038060020400600204006002024
:103C180048060020480600205006002050060020D4
:103C28005806002058060020ADDEFECAFFFFFFFF41
:043C3800FFFFFFFF8C
:043C3C001502000865
:043C4000ED0100088A
:043C4400151400084B
:040000050800095195
:00000001FF
