:020000040800F2
:1000000000000320BD010008B5010008B50100088B
:10001000B5010008B5010008B501000800000000A6
:10002000000000000000000000000000B501000812
:10003000B501000800000000B5010008B501000886
:10004000B5010008B5010008B5010008B5010008B8
:1000500000000000B5010008B5010008B501000866
:10006000B5010008B5010008B5010008B501000898
:10007000B5010008B5010008B5010008B501000888
:10008000B5010008B5010008B5010008B501000878
:10009000B5010008B5010008B5010008B501000868
:1000A000B5010008B5010008B5010008B501000858
:1000B000B5010008B5010008B5010008B501000848
:1000C000B5010008B5010008B5010008B501000838
:1000D000B5010008B5010008B5010008B501000828
:1000E000B5010008B5010008B5010008B501000818
:1000F000B5010008B5010008B5010008B501000808
:10010000B5010008B5010008B5010008B5010008F7
:10011000B5010008B5010008B5010008B5010008E7
:10012000B5010008B5010008B5010008B5010008D7
:10013000B5010008B5010008B5010008B5010008C7
:10014000B5010008B5010008B5010008B5010008B7
:10015000B5010008B5010008B5010008B5010008A7
:10016000B5010008B5010008B5010008B501000897
:10017000B5010008B5010008B5010008B501000887
:10018000B5010008B5010008B5010008B501000877
:10019000B5010008B5010008B5010008B501000867
:1001A000B5010008B5010008B501000880B400AF32
:1001B00000BFFDE780B400AF00BFFDE780B586B0AB
:1001C00000AF1A4A1A4BD31A7B60194B7B61194B4B
:1001D0003B610023FB600AE03A69531C3B617B6989
:1001E000591C796112781A70FB680133FB60FA6858
:1001F0007B689A42F0D3104A104BD31A7B600F4BA6
:100200007B610023BB6007E07B695A1C7A61002296
:100210001A70BB680133BB60BA687B689A42F3D33B
:10022000FFF7C4FF00BF1837BD4680BD00000020A7
:100230000000002040020008000000200000002014
:04000005080001BD31
:00000001FF
