:020000040800F2
:100000000000032039030008310300083103000811
:10001000310300083103000831030008000000002C
:100020000000000000000000000000003103000894
:10003000310300080000000031030008310300080C
:1000400031030008310300083103000831030008C0
:1000500000000000310300083103000831030008EC
:1000600031030008310300083103000831030008A0
:100070003103000831030008310300083103000890
:100080003103000831030008310300083103000880
:100090003103000831030008310300083103000870
:1000A0003103000831030008310300083103000860
:1000B0003103000831030008310300083103000850
:1000C0003103000831030008310300083103000840
:1000D0003103000831030008310300083103000830
:1000E0003103000831030008310300083103000820
:1000F0003103000831030008310300083103000810
:1001000031030008310300083103000831030008FF
:1001100031030008310300083103000831030008EF
:1001200031030008310300083103000831030008DF
:1001300031030008310300083103000831030008CF
:1001400031030008310300083103000831030008BF
:1001500031030008310300083103000831030008AF
:10016000310300083103000831030008310300089F
:10017000310300083103000831030008310300088F
:10018000310300083103000831030008310300087F
:10019000310300083103000831030008310300086F
:1001A0003103000831030008310300080348044B01
:1001B000834202D0034B03B1184770477C060020EE
:1001C0007C060020000000000548064B1B1AD90FD2
:1001D00001EBA301491002D0034B03B1184770474C
:1001E0007C0600207C0600200000000010B5064CB4
:1001F000237843B9FFF7DAFF044B13B10448AFF398
:1002000000800123237010BD800600200000000044
:100210002022000808B5044B1BB104490448AFF381
:100220000080BDE80840CFE7000000008406002001
:1002300020220008002A01D002F5807A704700BF12
:10024000162030A1ABBE2F484168002901D0344AA6
:1002500011600168002901D1304901608168C268DC
:10026000294B002900D00B469D46FFF7E3FF0021F4
:100270008B460F462548264A121A00F0FBFA01F079
:1002800007FE15202449ABBE23490968002001B4AC
:100290000B780131002B15D0202BF9D0222B01D067
:1002A000272B01D11A0001E02022013902B40130CC
:1002B0000B780131002B05D09A42F9D100224B1E58
:1002C0001A70E5E76946020092006A446B469A425A
:1002D00006D9043A14681D6815601C600433F6E7FB
:1002E0006C460725AC43A54604000D00094800F004
:1002F000D3F800F09BFB2000290000F013F800F079
:10030000D1F800BF0400002000000000800600209B
:10031000740A00207D0A000814010020740A0020DD
:100320006806002080B500AF01F0B2FD00BFFDE718
:1003300080B400AF00BFFDE780B586B000AF1B4AB8
:100340001B4BD31A7B601A4B7B611A4B3B6100231A
:10035000FB600AE03A69531C3B617B69591C796177
:1003600012781A70FB680133FB60FA687B689A4266
:10037000F0D3114A114BD31A7B60104B7B610023E1
:10038000BB6007E07B695A1C7A6100221A70BB6867
:100390000133BB60BA687B689A42F3D300F046FB36
:1003A000FFF7C0FF00BF1837BD4680BD74060020B0
:1003B0000000002060220008740A0020800600204F
:1003C00030B490F800F020F007016FF0000C10F04E
:1003D000070491F820F040F048804FF000046FF0DF
:1003E0000700D1E9002391F840F000F1080082FAFB
:1003F0004CF2A4FA8CF283FA4CF3A2FA8CF34BBBC6
:10040000D1E9022382FA4CF200F10800A4FA8CF23E
:1004100083FA4CF3A2FA8CF3E3B9D1E9042382FA0C
:100420004CF200F10800A4FA8CF283FA4CF3A2FA21
:100430008CF37BB9D1E9062301F1200182FA4CF259
:1004400000F10800A4FA8CF283FA4CF3A2FA8CF3C0
:10045000002BC6D0002A04BF04301A4612BAB2FAE2
:1004600082F200EBD20030BC7047D1E9002304F0E7
:100470000305C4F100004FEAC50514F0040F91F81C
:1004800040F00CFA05F562EA05021CBF63EA0503B9
:1004900062464FF00004AAE7002301461A461846B8
:1004A00000F014BB08B50021044600F059FB034BD3
:1004B0001B6803B19847204601F056F9D407002085
:1004C000024A0349034800F069B900BF1C0100203B
:1004D0004D140008300100200C4B4168994210B5C2
:1004E000044601D000F0B2FFA168094B994202D046
:1004F000204600F0ABFFE168064B994204D020464D
:10050000BDE8104000F0A2BF10BD00BF9C06002057
:10051000040700206C07002008B54B6EDA0702D4F0
:100520008B899B0501D5002008BD886D00F0C4FAB9
:10053000002008BD08B54B6EDA0702D48B899B05F5
:1005400001D5002008BD886D00F0BEFA002008BD6E
:100550002DE9F843314A324C3249DFF8DC90DFF8BC
:10056000DC80314F1160002504232946082204F164
:100570005C00C4E903352D4EA560C4E90055C4E90B
:100580000555656600F076F904F15800C4E907499D
:10059000C4E90987E66200F087FA2946244B6367BD
:1005A000082204F1C400C4E91A55C4E91E552567A0
:1005B000C4F8CC50C4F8805000F05CF904F1680332
:1005C00004F1C000C4F88430C4E92298C4E9247658
:1005D00000F06AFA174BC4F8DC30294604F596702F
:1005E0000822C4E93455C4E93855C4F8D850C4F8D1
:1005F0003451C4F8E85000F03DF904F1D003C4E9E7
:100600003D87C4F8F09004F59470C4F8FC60C4F819
:10061000EC30BDE8F84300F047BA00BFD407002033
:100620009C060020C1040008490800086D08000865
:100630000900010012000200E10700080908000893
:10064000F8B506462A4800F037FA2A4B1B68002BFB
:1006500043D0294FD7E90134013B04D524E05A1C8B
:1006600004F1680420D0B4F90C50013B002DF6D100
:10067000224BE36004F15800656600F015FA1C484F
:1006800000F022FAC4E90155C4E9045508222560A6
:10069000A561294604F15C0000F0ECF8C4E90C55B2
:1006A000C4E911552046F8BD3D680DB12F46D1E78C
:1006B0004FF4D671304600F00BFC044680B10423A1
:1006C000C0E900530C302946A0604FF4D072254693
:1006D00000F0D0F83C602F46BCE7FFF739FFB8E7E1
:1006E00003483C6000F0F0F90C233360DAE700BF08
:1006F000F8070020D40700201C0100200100FFFFA4
:1007000010B504460A4800F0D7F9636B23B9094BCA
:10071000094A1B68626323B1BDE81040044800F039
:10072000D3B9FFF715FFBDE81040014800F0CCB980
:10073000F8070020D4070020D9040008014800F081
:10074000BBB900BFF8070020014800F0BDB900BFE9
:10075000F807002008B5054800F0AEF9BDE80840EC
:10076000034A0449002000F019B800BFF807002030
:100770001C0100201905000808B5054A054900209C
:1007800000F00CF8BDE80840034800F09DB900BF38
:100790001C01002035050008F80700202DE9F8436A
:1007A0000746884616464FF00009D6E90154013D38
:1007B00010D4A389012B08D9B4F90E300133214696
:1007C000384602D0C04749EA0009013D6B1C04F1DC
:1007D0006804EED13668002EE7D14846BDE8F883BC
:1007E00010B50C46B1F90E1000F0F4F8002803DB48
:1007F000236D0344236510BDA38923F48053A38193
:1008000010BD00BF002070472DE9F0410C46B1F942
:100810000C101F46CB05054616460BD421F480511B
:10082000A1813B46B4F90E1032462846BDE8F0419E
:1008300000F0E6B8B4F90E100223002200F0B4F87C
:10084000B4F90C10EAE700BF10B50C46B1F90E1070
:1008500000F0AAF8B4F90C30421C0EBF23F4805308
:1008600043F480532065A38110BD00BFB1F90E1081
:1008700000F052B8830730B547D0541E002A3ED04E
:10088000CAB2034601E0013C39D303F8012B9D07AE
:10089000F9D1032C2CD9CDB205EB05250F2C05EB96
:1008A000054535D9A4F1100222F00F0C03F1100E0A
:1008B000E6444FEA121C1A46C2E90055C2E9025545
:1008C00010327245F8D10CF1010214F00C0F03EB59
:1008D000021204F00F0C13D0ACF1040323F0030355
:1008E0000433134442F8045B9342FBD10CF003043D
:1008F0002CB1C9B21C4403F8011BA342FBD130BD8B
:1009000064461346002CF4D1F9E703461446C0E7C9
:100910001A46A446E0E700BF38B5074D002204465A
:1009200008462A6001F0A2F8431C00D038BD2B68AD
:10093000002BFBD0236038BDD8070020194B1B6863
:1009400083422ED0416C70B5054681B100268C598A
:100950003CB121462468284600F0BEF9002CF8D1AD
:10096000696C0436802EF2D1284600F0B5F9A96BE7
:1009700011B1284600F0B0F92C6C34B1214624683E
:10098000284600F0A9F9002CF8D1E96C11B12846ED
:1009900000F0A2F96B6B1BB12846BDE87040184708
:1009A00070BD70472801002038B50C46084D8446BC
:1009B000114620461A4600232B60644600F0C6FF0D
:1009C000431C00D038BD2B68002BFBD0236038BD02
:1009D000D807002038B50C46084D844611462046FD
:1009E0001A4600232B60644600F00CFF431C00D025
:1009F00038BD2B68002BFBD0236038BDD807002002
:100A000038B50C46084D8446114620461A46002348
:100A10002B60644600F0BAFF431C00D038BD2B6841
:100A2000002BFBD0236038BDD807002070B50F4BDA
:100A30000F4DAB42A3EB050607D0B610002455F8C6
:100A4000043B01349847A642F9D801F0ABFB094DAD
:100A5000094B5E1BAB424FEAA60606D0002455F8B0
:100A6000043B01349847A642F9D870BD000000004D
:100A700000000000000000000000000038B5074D35
:100A8000074C2C1BA41005D0013C55F8043D984799
:100A9000002CF9D1BDE8384001F08ABB000000000D
:100AA00000000000704700BF704700BF704700BFE4
:100AB000704700BF704700BF704700BF01207047FC
:100AC00001207047704700BF704700BF2DE9F84311
:100AD0001B4D0646286898460F469146FFF7ECFFE7
:100AE000184B1C681CB3286865681F2D22DC4EB9A2
:100AF0006B1C0235636044F82570FFF7E5FF0020AA
:100B0000BDE8F88304EB85010123C1F88890D4F88F
:100B10008821AB401A43022EC4F88821C1F808810D
:100B2000E6D1D4F88C211A43C4F88C21E0E7064CB6
:100B30001C60D8E7FFF7C8FF4FF0FF30E0E700BFC9
:100B4000500200208C090020FC070020024B13B14A
:100B50000248FFF7A1BC7047000000007D0A0008B2
:100B60002DE9F04F2C4B2D4F83B082461868CDF8FD
:100B700004A08B46FFF7A0FF3E684EB34FF000097C
:100B80004FF001087468651E22D4013406EB84041A
:100B9000BBF1000F23D173682268013BAB420CBF4D
:100BA0007560C4F8009072B1D6F88811D6F804A028
:100BB00008FA05F30B421CD1904773683A68534515
:100BC00023D1B24221D1013D6B1CA4F10404DFD139
:100BD000114B186803B0BDE8F04FFFF775BFD4F8AC
:100BE00000315B45D7D0013D6A1CA4F10404F6D165
:100BF000EEE7D6F88C01D4F88010034209D10198B1
:100C0000904773683A685345DBD0002AE0D0164617
:100C1000B8E708469047D0E7500200208C09002032
:100C20002DE9F84306460820894600F089FDDFF8E3
:100C3000A4800546304600F0FDFBD8F808305F6818
:100C400027F00307A7F11104A4EB09042C44B4FB1B
:100C5000F5F4013C05FB04F4A54208DC0021304614
:100C600000F05CFDD8F808303B44984205D030468F
:100C700000F0E6FB0020BDE8F8836142304600F05A
:100C80004DFD01300FD0114AD8F808303F1B47F016
:100C900001075F60136830461B1B136000F0D0FB38
:100CA0000120BDE8F8830021304600F037FDD8F878
:100CB0000820831A0F2BDADD43F001035360044B45
:100CC00002491B68C01A0860D1E700BF90090020E4
:100CD000540200206002002000297CD02DE9F04160
:100CE0000C46804600F0A6FB54F8043C754FA4F176
:100CF000080523F001016818BE684268864222F0A8
:100D0000030200F08380DE07426000EB020C33D464
:100D100054F8084CDCF804302D1B2144AC6807F172
:100D2000080C644503F0010364D0D5F80CE0C4F866
:100D30000CE0CEF80840002B00F0818041F0010368
:100D40006B600160B1F5007F22D27868CB08012288
:100D5000490901338A40024357F833107A6007EBA0
:100D6000C302083AC5E9021247F83350CD60404645
:100D7000BDE8F04100F064BBDCF80430DB072BD5A4
:100D800041F00103B1F5007F44F8043C0160DCD37D
:100D9000B1F5206F4FEA512353D28B0903F139008B
:100DA00003F13802C300F818FB580838984203D101
:100DB00061E09B68984204D05A6822F003028A429C
:100DC000F7D8D868C5E902308560DD604046BDE8E7
:100DD000F04100F035BB7047114407F1080C8368FF
:100DE00063453FD0C268DA60936041F001036B60F5
:100DF0006950A7E7002B5FD10A44D0E90213CB600A
:100E0000996042F001036B60AA50B0E7DB070A4427
:100E100007D454F8083CED1A1A44D5E90213CB6004
:100E2000996042F001036B60274BBD601B689342E1
:100E30009DD8264B40461968FFF7F2FE97E711440C
:100E4000CDE7142B08D9542B1DD80B0B03F16F00E1
:100E500003F16E02C300A6E703F15C0003F15B023D
:100E6000C300A0E741F00103C7E90455C5E902CC7E
:100E70006B6069507BE779689210012404FA02F2F2
:100E80000A437A609EE7B3F5AA7F06D8CB0B03F13D
:100E9000780003F17702C30085E740F25452934291
:100EA00006D88B0C03F17D0003F17C02C3007AE7C6
:100EB0004FF47E737E2276E741F001036B600160A0
:100EC00055E700BF6002002058020020C009002042
:100ED0002DE9F04F01F10B05162D83B0064623D8FE
:100EE000102900F2AF8000F0A5FA10251823022087
:100EF000B74F3B44A3F108025C68944200F01E81A6
:100F00006368E268A16823F00303CA6023443046A3
:100F100091605A6842F001025A6000F091FA083478
:100F2000204603B0BDE8F08F35F0070500F18A8058
:100F3000A94200F2878000F07DFAB5F5FC7FC0F091
:100F40006E816B0A00F08280042B00F21D81AB09D8
:100F500003F1390003F1380EC3009D4F3B44A3F168
:100F6000080C5C68A44507D10DE0002AE16880F216
:100F7000DF808C4507D00C46636823F003035A1BBF
:100F80000F2AF2DD7046DFF860823C69444500F0CC
:100F9000BC80636823F0030CACEB05030F2B00F35C
:100FA0004281002BC7E9048880F22D81BCF5007FC7
:100FB000D7F804E080F0C8804FEADC0101314FEA45
:100FC0005C1C012303FA0CF357F83120A2604EEAAF
:100FD000030E07EBC103083BE360C7F804E047F8E2
:100FE0003140D46083104FF0010C0CFA03FCF4453F
:100FF00032D81CEA0E0F08D120F003004FEA4C0C47
:101000001CEA0E0F00F10400F8D007EBC00AD64628
:101010008146DEF80C300BE0596821F003014A1BD1
:101020000F2A1C46DB6800F3BB80002A80F2DE80BA
:101030009E45F1D109F1010919F0030F0EF1080ED7
:10104000E7D119E10C233360002469E74FF4007302
:1010500040204FF03F0E80E7BC68636823F003092F
:10106000A94503D3A9EB05030F2B51DC594B1B6892
:10107000082003F1100804EB0903009300F060FB63
:10108000554A13680133A844834605D008F1FF3858
:101090008044434203EA08084146304600F03EFBE4
:1010A000B0F1FF3F4C4A824600F0D880009B83425B
:1010B00000F2D280494B186840440BF1FF311860B0
:1010C000844640F0FC801AEA010F40F0F880D7F81F
:1010D00008A0C84448F00102CAF80420404B19682F
:1010E000814238BF18603F4B1968814238BF186091
:1010F000544622F00308A845A8EB050301D30F2BA3
:1011000006DC304600F09CF99EE7D7F804E069E77A
:10111000621943F0010345F0010565603046BA608D
:10112000536000F08DF90834204603B0BDE8F08F1D
:10113000A2682344D16030468A60EAE6DC68A342B4
:101140007FF4DEAE02301EE7BCF5206F4FEA5C2272
:101150007BD3142A00F2128102F15C03DB005B32C4
:10116000F918FB580839994203D1ECE09B68994281
:1011700004D05A6822F003026245F7D8D968C4E95E
:1011800002318C60DC602DE7142B6AD9542B00F2FD
:10119000FE802B0B03F16F0003F16E0EC300DCE643
:1011A000D4F808C03046661945F001056560CCF8F2
:1011B0000C30C3F808C042F00103C7E90466C6E971
:1011C00002887360625000F03BF90834A8E600BF63
:1011D00060020020C0090020540200209009002075
:1011E000BC090020B80900206802002021443046D4
:1011F0004A6842F001024A6054F8082FD3609A60AE
:1012000000F01EF98CE6A4443046DCF8043043F0CC
:101210000103CCF8043000F013F9083480E6E80844
:1012200005F1080364E6621943F0010145F0010588
:1012300065603046C7E90422C2E90288516044F87B
:101240000C3000F0FDF808346AE64FEA9C1202F117
:101250003903DB00383283E7BC4228D0BC686268BF
:1012600047E703F15C0003F15B0EC30075E65AF833
:101270000839534540F0D98010F0030F00F1FF30DA
:10128000F5D17B6823EA0C037B604FEA4C0C9C454C
:101290003FF6E2AEBCF1000F04D1DDE64FEA4C0CA4
:1012A00009F104091CEA030FF8D04846ADE6604B8B
:1012B000186808EB000C0BF1FF31C3F800C0106890
:1012C00001306ED0009AAAEB020262441A601AF052
:1012D0000702CDE9002340D0C2F108029244D04475
:1012E00008EA01005A44121A02EA010B5946304634
:1012F00000F014FA421C019B6FD0A0EB0A0000EB37
:101300000B081868C7F808A048F001025844BC420E
:10131000CAF8042018603FF4E1AEB9F10F0F43D9C9
:101320006168A9F10C0222F0070201F001011143EA
:1013300061604FF0050CA1180F2AC1E901CC54D807
:10134000DAF80420CAE692104FF0010C0CFA02F20F
:101350004EEA020EC7F804E011E70AEB08020A4061
:10136000ABEB020202EA010B5946304600F0D6F917
:10137000431C019BC1D1DDF800B0C2E7542A17D845
:101380004FEA1C3202F16F03DB006E32E8E6B3F580
:10139000AA7F17D8EB0B03F1780003F1770EC30097
:1013A000DBE5C2F800A092E70123CAF80430A8E602
:1013B000B2F5AA7F24D84FEADC3202F17803DB00D1
:1013C0007732CDE640F25452934224D8AB0C03F16D
:1013D0007D0003F17C0EC300BFE5009A083A9044FB
:1013E000A8EB0A084FF0000B8BE7304604F1080128
:1013F0000093FFF771FC009BD7F808A018689FE7DF
:1014000040F254539A420CD84FEA9C4202F17D03B9
:10141000DB007C32A4E64FF47E737F204FF07E0E1B
:101420009BE54FF47E737E229AE67B682DE700BF32
:10143000900900200148FFF73FBB00BFEC070020E8
:101440000148FFF741BB00BFEC07002070B5002941
:101450003FD006460C4610B1436B002B3CD0636E68
:10146000B4F90C20DD0732D4900538D5214630463A
:1014700000F054F8E36A054633B1E1693046984715
:101480000028B8BF4FF0FF35A3891A0639D4216B65
:1014900041B104F14003994202D03046FFF71CFCF1
:1014A00000232363616C21B13046FFF715FC002354
:1014B0006364FFF743F9636E0022DB07A2811CD54A
:1014C000A06DFFF7F5FAFFF73FF9284670BD002A37
:1014D000CCD10025284670BDFFF712F9BFE7A06DFB
:1014E000FFF7EAFAB4F90C30002BBFD1636ED907CD
:1014F000EFD4A06DFFF7E8FAEBE7A06DFFF7E4FA91
:10150000DEE721693046FFF7E7FBC0E7024B014603
:101510001868FFF79BBF00BF28010020B1F90C201D
:101520002DE9F04116070C4680464ED4496842F436
:1015300000630029A38163DDA56A002D42D000214C
:1015400012F48052D8F80060C8F80010E16964D144
:1015500001234046A847451C02466ED0B4F90C3022
:10156000A56AE169580705D56368D21A236B0BB1E8
:10157000E36BD21A00234046A847431C4FD1D8F84A
:101580000010B4F90C301D2940D8314ACA40D707A1
:101590003CD52269226023F40062A281DD044FF071
:1015A0000002626001D5002945D0216BC8F80060B7
:1015B00041B104F14003994202D04046FFF78CFB51
:1015C000002323630020BDE8F0810E69002EF9D0CE
:1015D0000D680E6092070CBF4B690023AD1B8B603A
:1015E0000BE02B463246E169676A4046B847B0F1E6
:1015F000000CA5EB0C05664406DD002DF1DCE1E7EF
:10160000E16B002998DCDDE7B4F90C3043F04003CE
:10161000A3814FF0FF30BDE8F081226DA2E7B4F95D
:101620000C302269226023F40062A281DB044FF0B7
:1016300000026260B9D52065B7E7D8F80030002B0A
:101640008CD01D2B01D0162BDED1C8F80060B9E775
:101650000100402038B50C46054608B1436B03B382
:10166000B4F90C0088B1636EDB0701D481050FD596
:1016700028462146FFF752FF636EDA07054602D47B
:10168000A3899B0508D5284638BD0546284638BDA0
:10169000A06DFFF711FAEBE7A06DFFF715FA2846EA
:1016A00038BDFFF72DF8DBE750B338B5174B1D6891
:1016B00004460DB16B6BBBB1B4F90C0088B1636E1D
:1016C000DB0701D4810513D528462146FFF726FF05
:1016D000636EDA07054602D4A3899B050CD528461C
:1016E00038BD0546284638BD2846FFF709F8E3E728
:1016F000A06DFFF7E1F9E7E7A06DFFF7E5F9EEE789
:10170000034A04490448FFF749B800BF28010020F4
:101710001C010020551600083001002038B5074D87
:101720000022044608462A6000F0ECF9431C00D071
:1017300038BD2B68002BFBD0236038BDD8070020B4
:10174000082802D14FF48050704708B500F006F821
:10175000162303604FF0FF3008BD00BF014B18682F
:10176000704700BF28010020014608B5024A4FF02B
:10177000FF3000F003F800BF2600020000B583B080
:10178000CDE9002100F03CFB00280CBF18242024E8
:1017900000F036FB20B16D4620462946ABBE04461C
:1017A000009D20462946ABBE044600BF062908B569
:1017B00002D0034AFFF7E2FF024AFFF7DFFF00BF54
:1017C0002600020023000200F0B585B0CDE901013A
:1017D0000392062401AD20462946ABBE0446631C95
:1017E00002D0204605B0F0BDFFF7B8FF132605462E
:1017F000002730463946ABBE064620462E6005B06F
:10180000F0BD00BF2DE9F0411F4B1B6884B00546B9
:101810000F4614460BB15A6BE2B1132D1FD81B4E65
:1018200056F835305A1C1AD0CDE9013703940627F3
:101830000DF1040838464146ABBE07467B1C13D069
:1018400006EBC503E41B5A68204622445A6004B0E4
:10185000BDE8F0811846FEF753FF132DDFD9FFF7DF
:101860007DFF0923036009E0FFF778FF1325044695
:10187000002628463146ABBE054625604FF0FF30B6
:1018800004B0BDE8F08100BF28010020D409002089
:101890002DE9F0412B4B1B6882B005460C461646DD
:1018A00013B15A6B002A43D0132D46D8264F57F850
:1018B0003530591C41D0022E28D8012E21D0022EBD
:1018C00012D0E846CDE900340A2630464146ABBE88
:1018D0000646731C1FD0002E27DB07EBC5077C6074
:1018E000204602B0BDE8F08100930C26E846304661
:1018F0004146ABBE0646721C0DD057F83530344415
:10190000E0E707EBC5025268A418DAD5FFF726FF17
:101910001623036009E0FFF721FF13250446002684
:1019200028463146ABBE054625604FF0FF34D7E769
:101930001846FEF7E5FE132DB8D9FFF70FFF092370
:101940000360F2E728010020D4090020FFF7A0BFC0
:10195000F0B585B0CDE901010392052401AD204623
:101960002946ABBE0446631C02D0204605B0F0BD3C
:10197000FFF7F4FE13260546002730463946ABBE76
:10198000064620462E6005B0F0BD00BF2DE9F041AF
:10199000264B1B6884B006460C4615460BB15A6BA5
:1019A000FAB1132E22D8224F57F836305A1C1DD0C8
:1019B000CDE90134039505240DF104082046414684
:1019C000ABBE0446631C16D0002C1EDB07EBC6031F
:1019D000281B5A68AC4202445A6019D004B0BDE8D2
:1019E000F0811846FEF78CFE132EDCD9FFF7B6FE09
:1019F0000923036009E0FFF7B1FE13250446002622
:101A000028463146ABBE054625604FF0FF30E5E77E
:101A1000FFF7A4FE13260546002430462146ABBE40
:101A2000064620462E6004B0BDE8F0812801002063
:101A3000D4090020F0B583B00224019001AD204606
:101A40002946ABBE0446631C02D0204603B0F0BD5D
:101A5000FFF784FE13260546002730463946ABBE05
:101A6000064620462E6003B0F0BD00BFF0B5224B05
:101A70001B6883B005460BB15A6B2AB3132D28D8C7
:101A80001E4E56F835305A1C23D06A1E012A03D840
:101A9000B1683269914210D00193022401AF20460F
:101AA0003946ABBE0446631C204617D01CB94FF024
:101AB000FF3346F8353003B0F0BD4FF0FF33002060
:101AC00046F8353003B0F0BD1846FEF719FE132D69
:101AD000D6D9FFF743FE0923036009E0FFF73EFE76
:101AE00013250446002628463146ABBE0546256030
:101AF0004FF0FF30DFE700BF28010020D4090020AD
:101B0000012070470D4A0346106810B598B1034490
:101B100069468B4208D80A490A4C0968A14201D09B
:101B20008B4201D8136010BDFFF718FE0C23036031
:101B30004FF0FF3010BD04481060E8E7C4090020F2
:101B400068060020ADDEFECA740A00201C4B1B682C
:101B500070B505460C460BB15A6BCAB1132D1CD893
:101B6000184B53F83520013217D062684FF480616A
:101B700042F400526260A1640C2603EBC5053046B6
:101B80002946ABBE05466B1C0CD02561002070BDFC
:101B90001846FEF7B5FD132DE2D9FFF7DFFD092347
:101BA000036009E0FFF7DAFD132504460026284606
:101BB0003146ABBE054625604FF0FF3070BD00BF1B
:101BC00028010020D40900200B4610B5002104464E
:101BD00058221846FEF74EFE01462046BDE810404A
:101BE000FFF7B4BF38B50C46054658220021204601
:101BF000FEF740FE2846002100F012F8431C05467F
:101C00000CD0636843F4014321466360FFF79EFFF5
:101C100004462846FFF72AFF204638BD0446FBE766
:101C20002DE9F0472F4D96B081460F46002402E083
:101C30000134142C51D055F8343001334FEAC40626
:101C4000F6D107F42063B3F5206FEA4638D0C7F326
:101C50000048BA0740F2016348BF48F002081F423B
:101C600018BF48F004083B0748BF28F0040848465E
:101C700048BF48F00808CDF80090FEF7A1FB012707
:101C8000CDE9018038465146ABBE0746002F08DB40
:101C90002E44002345F834707360204616B0BDE82A
:101CA000F087FFF75BFD13250446002628463146E2
:101CB000ABBE054625603C46204616B0BDE8F08721
:101CC00051464846FFF78EFF0130C0D0FFF746FD72
:101CD000112303604FF0FF34DFE7FFF73FFD1823C8
:101CE0000360F7E7D40900200EB400B50199FFF7AF
:101CF00097FF5DF804EB03B0704700BF2DE9F04398
:101D0000074683B03B48884600211646FFF788FF08
:101D10000021044632463846FEF7ACFD611C58D01F
:101D2000354B186810B1436B002B55D0132C40D89D
:101D3000324B53F8342001323BD003EBC4090C255D
:101D400028464946ABBE05466A1C35D0032D3DDD0D
:101D5000033DB5423ADD04220DEB02012046FFF7B8
:101D600051FD032832DD9DF80430532B2ED19DF810
:101D70000530482B2AD19DF80630462B26D19DF8F8
:101D80000730422B22D1012241462046FFF780FD39
:101D900000281BDB324639462046FFF733FD054657
:101DA0002046FFF763FE6B1C19D0284603B0BDE840
:101DB000F0834FF00009C2E7FFF7D0FC1326054679
:101DC000002730463946ABBE06462E602046FFF758
:101DD0004DFE4FF0FF35E8E7FEF792FCA6E7FFF770
:101DE000BDFC13260446002730463946ABBE0646E6
:101DF0002660DAE70422000828010020D409002028
:101E000030B50F4C2068002883B001DB03B030BD33
:101E10000C4D0021012201A821602A60FFF76EFF0E
:101E2000002809DD9DF8043003F0010003F00203EF
:101E300020602B6003B030BD206803B030BD00BF10
:101E4000700600206C06002030B50F4C206800287A
:101E500083B001DB03B030BD0C4D0021012201A88D
:101E600029602260FFF74AFF002809DD9DF8040081
:101E700000F0010300F002002B60206003B030BDD1
:101E8000206803B030BD00BF6C0600207006002043
:101E90002DE9F04F85B04D4F0197032300240393A4
:101EA0004FF0010801AE029440463146ABBE804679
:101EB000474D2346474CC5F800804FF0FF3244F8A9
:101EC00033200133142BFAD1DFF81881D8F8003011
:101ED000002B53DB4BB9404A1168013166D02A68A8
:101EE000C4E9002305B0BDE8F08F4FF0030B0423D5
:101EF00001974FF00109CDF80CB0029348463146E6
:101F0000ABBE82460197354FCDF80CB00823C7F819
:101F100000A0029348463146ABBE0646DFF8B890B3
:101F2000D8F80030C9F80060013604BF3A68C9F833
:101F3000002000212A6822608B42616012DA284D5D
:101F400001226846C8F800202960FFF7D7FE002864
:101F500038DD9DF8003003F0010203F002032A602F
:101F6000C8F800303BB13968D9F800200023C4E933
:101F70000213C4E9042305B0BDE8F08FDFF86090D8
:101F8000002101226846C8F80020C9F80010FFF7B8
:101F9000B5FE002813DD9DF8003003F0010203F0C8
:101FA0000203C9F80020C8F8003093E70B482968FD
:101FB00000681060C4E9001305B0BDE8F08FD8F8E0
:101FC000003087E7D8F80030CCE700BF1C220008BB
:101FD000D0090020D4090020C8090020CC09002025
:101FE000700600206C06002008B5FFF7B7FB5823E9
:101FF00003604FF0FF3008BDF0B583B00E240090B1
:10200000FEF7DEF901906D4620462946ABBE044638
:10201000631C18BF002402D0204603B0F0BDFFF7B8
:102020009DFB13260546002730463946ABBE0646C3
:1020300020462E6003B0F0BDF0B50D4650B1044609
:102040001126002730463946ABBE0646F317C4E9D1
:102050000063A76015B10023C5E900330020F0BD7F
:1020600030B51024002520462946ABBE0446204644
:1020700030BD00BF70B50446102500262846314605
:10208000ABBE05461CB1C4E90056C4E90266284649
:1020900070BD00BF164B1B6870B505460BB15A6B7F
:1020A000E2B1132D1FD8134B53F8352001321AD04B
:1020B000092403EBC50520462946ABBE0446012C86
:1020C00020460AD0FFF74AFB13250446002628467F
:1020D0003146ABBE05462560002070BD1846FEF7B0
:1020E0000FFB132DDFD9FFF739FB09230360F3E75B
:1020F00028010020D4090020F0B583B0C0B10090C1
:10210000FEF75EF9122401906D4620462946ABBECB
:102110000446631C25460FD0FF2C06D82CB16D0059
:10212000C5F3072301D0A342F9D1284603B0F0BD7F
:102130000125284603B0F0BDFFF710FB1326044627
:10214000002730463946ABBE06462660EDE700BFA5
:10215000F0B585B00C460090FEF732F903462046F4
:10216000CDE90134FEF72CF90F2403906D4620468B
:102170002946ABBE0446631C06D0003C18BF0124B0
:102180006442204605B0F0BDFFF7E8FA1326054685
:10219000002730463946ABBE064620462E6005B0C5
:1021A000F0BD00BFF8B500BFF8BC08BC9E46704744
:1021B000F8B500BFF8BC08BC9E4670473E410C41D4
:1021C0001141274136410341064115410F410E415E
:1021D000264113412941024119410A410B410000A6
:1021E0003E410C4111412741364103410641154111
:1021F0000F410E41264113412941024119410A4133
:102200000B4100003A73656D69686F7374696E679E
:102210002D66656174757265730000003A74740010
:102220001000000000000000017A5200027C0E0144
:102230001B0C0D001C0000001800000084E1FFFFD3
:10224000D800000000410E088501840202490A4AB4
:08225000C5C4410B00000000B1
:08225800DCDFFF7F0100000044
:10226000000000000000000000000000000000006E
:10227000000000000000000000000000000000005E
:10228000000000000000000000000000000000004E
:10229000000000000000000000000000000000003E
:1022A000000000000000000000000000000000002E
:1022B000000000000000000000000000000000001E
:1022C000000000000000000000000000000000000E
:1022D00000000000000000000000000000000000FE
:1022E00000000000000000000000000000000000EE
:1022F00000000000000000000000000000000000DE
:1023000000000000000000000000000000000000CD
:1023100000000000000000000000000000000000BD
:1023200000000000000000000000000000000000AD
:10233000000000000000000000000000000000009D
:10234000000000000000000000000000000000008D
:10235000000000000000000000000000000000007D
:10236000000000000000000000000000000000006D
:102370000000000014000020FF000000000000002A
:10238000030000009C060020300100200000000037
:10239000000000009C060020040700206C070020BD
:1023A000000000000000000000000000000000002D
:1023B000000000000000000000000000000000001D
:1023C000000000000000000000000000000000000D
:1023D00000000000000000000000000000000000FD
:1023E00000000000000000000000000000000000ED
:1023F00000000000000000000000000000000000DD
:1024000000000000000000000000000000000000CC
:1024100000000000000000000000000000000000BC
:1024200000000000000000000100000000000000AB
:102430000E33CDAB34126DE6ECDE05000B00000070
:10244000000000000000000000000000000000008C
:10245000000000000000000000000000000000007C
:10246000000000000000000000000000000000006C
:10247000000000000000000000000000000000005C
:10248000000000000000000000000000000000004C
:10249000000000000000000000000000000000003C
:1024A000000000000000000000000000000000002C
:1024B000F4070020FFFFFFFF000002000000000003
:1024C0000000000000000000600200206002002008
:1024D00068020020680200207002002070020020C4
:1024E0007802002078020020800200208002002074
:1024F0008802002088020020900200209002002024
:102500009802002098020020A0020020A0020020D3
:10251000A8020020A8020020B0020020B002002083
:10252000B8020020B8020020C0020020C002002033
:10253000C8020020C8020020D0020020D0020020E3
:10254000D8020020D8020020E0020020E002002093
:10255000E8020020E8020020F0020020F002002043
:10256000F8020020F80200200003002000030020F1
:10257000080300200803002010030020100300209F
:10258000180300201803002020030020200300204F
:1025900028030020280300203003002030030020FF
:1025A00038030020380300204003002040030020AF
:1025B000480300204803002050030020500300205F
:1025C000580300205803002060030020600300200F
:1025D00068030020680300207003002070030020BF
:1025E000780300207803002080030020800300206F
:1025F000880300208803002090030020900300201F
:102600009803002098030020A0030020A0030020CE
:10261000A8030020A8030020B0030020B00300207E
:10262000B8030020B8030020C0030020C00300202E
:10263000C8030020C8030020D0030020D0030020DE
:10264000D8030020D8030020E0030020E00300208E
:10265000E8030020E8030020F0030020F00300203E
:10266000F8030020F80300200004002000040020EC
:10267000080400200804002010040020100400209A
:10268000180400201804002020040020200400204A
:1026900028040020280400203004002030040020FA
:1026A00038040020380400204004002040040020AA
:1026B000480400204804002050040020500400205A
:1026C000580400205804002060040020600400200A
:1026D00068040020680400207004002070040020BA
:1026E000780400207804002080040020800400206A
:1026F000880400208804002090040020900400201A
:102700009804002098040020A0040020A0040020C9
:10271000A8040020A8040020B0040020B004002079
:10272000B8040020B8040020C0040020C004002029
:10273000C8040020C8040020D0040020D0040020D9
:10274000D8040020D8040020E0040020E004002089
:10275000E8040020E8040020F0040020F004002039
:10276000F8040020F80400200005002000050020E7
:102770000805002008050020100500201005002095
:102780001805002018050020200500202005002045
:1027900028050020280500203005002030050020F5
:1027A00038050020380500204005002040050020A5
:1027B0004805002048050020500500205005002055
:1027C0005805002058050020600500206005002005
:1027D00068050020680500207005002070050020B5
:1027E0007805002078050020800500208005002065
:1027F0008805002088050020900500209005002015
:102800009805002098050020A0050020A0050020C4
:10281000A8050020A8050020B0050020B005002074
:10282000B8050020B8050020C0050020C005002024
:10283000C8050020C8050020D0050020D0050020D4
:10284000D8050020D8050020E0050020E005002084
:10285000E8050020E8050020F0050020F005002034
:10286000F8050020F80500200006002000060020E2
:102870000806002008060020100600201006002090
:102880001806002018060020200600202006002040
:1028900028060020280600203006002030060020F0
:1028A00038060020380600204006002040060020A0
:1028B0004806002048060020500600205006002050
:1028C0005806002058060020ADDEFECAFFFFFFFFBD
:0428D000FFFFFFFF08
:0428D40015020008E1
:0428D800ED01000806
:0428DC004D0B000898
:0400000508000339B3
:00000001FF
